:020000040800F2
:1000000000500020F9020008FF0200080103000868
:1000100003030008050300080703000800000000B0
:1000200000000000000000000000000009030008BC
:100030000B030008000000000D030008A90A0008D7
:100040001103000811030008110300081103000840
:100050001103000811030008110300081103000830
:100060001103000811030008110300081103000820
:100070001103000811030008110300081103000810
:100080001103000811030008110300081103000800
:10009000110300081103000811030008A12C000837
:1000A00011030008110300081103000811030008E0
:1000B00011030008110300081103000811030008D0
:1000C00011030008110300081103000811030008C0
:1000D0001103000811030008DD2C000811030008BB
:1000E00011030008110300081103000811030008A0
:1000F0001103000811030008110300081103000890
:10010000110300081103000811030008110300087F
:10011000110300081103000811030008110300086F
:10012000110300081103000811030008110300085F
:1001300000000000000000000000000000000000BF
:1001400000000000000000000000000000000000AF
:10015000000000000000000000000000000000009F
:10016000000000000000000000000000000000008F
:10017000000000000000000000000000000000007F
:10018000000000000000000000000000000000006F
:10019000000000000000000000000000000000005F
:1001A000000000000000000000000000000000004F
:1001B000000000000000000000000000000000003F
:1001C000000000000000000000000000000000002F
:1001D000000000000000000000000000000000001F
:1001E0005FF8E0F100B583B001F0E4FD304B314A37
:1001F0001360314A1360314B314A03E052F8041B5B
:1002000043F8041B2F498B42F8D32A4B1A682E4B14
:100210009A4200D0FEE7284B1A682C4B9A42F9D13B
:10022000234B2B4A13602B4A13602B4B02E0002216
:1002300043F8042B294A9342F9D3254B1B6813B981
:10024000244B1B6803B1FEE701F0B8FD694601A825
:1002500001F024FD224C234BE41AA410002504E0F5
:10026000204B53F8253098470135AC42F8DC1E4C42
:100270001E4BE41AA410002504E01C4B53F8253053
:1002800098470135AC42F8DC0099019803F0EEFA8A
:100290000546174C174BE41AA41004E0013C154B1B
:1002A00053F824309847002CF8DC284601F0C9FCAC
:1002B000BABADECA00000020A00000200000002022
:1002C000545F0008A4000020785634123254769807
:1002D000A400002030050020A400002034050020E8
:1002E000140300081403000818030008140300088E
:1002F0001C0300081803000808B5FFF773FFFEE7AA
:10030000FEE7FEE7FEE7FEE7FEE7FEE7FEE77047F3
:04031000FEE7000004
:08031400AD030008BB03000863
:10031C00704710B5044603F0B4FA204610BD000037
:10032C000122027100218160027B42F00102027302
:10033C000161014A02607047D84A000810B50446B2
:10034C0000F016FB214600F027FB00F011FB00F03B
:10035C0053FB10BD08B5024800F0A2F908BD00BF60
:10036C00A800002000487047A800002038B50446BB
:10037C000D46012805D01CB94FF6FF739D4208D0DD
:10038C0038BD4FF6FF739942F5D1044800F0DAF905
:10039C00F1E7024800F02CF9F2E700BFA8000020BA
:1003AC0008B54FF6FF710120FFF7E0FF08BD08B557
:1003BC004FF6FF710020FFF7D9FF08BD704710B54D
:1003CC00044603F05EFA204610BD000010B403246E
:1003DC0004718160017B41F0010101730261024AE9
:1003EC00026010BC704700BFE84A0008704710B5A7
:1003FC00044603F046FA204610BD000010B4022457
:10040C0004718160017B41F0010101730261024AB8
:10041C00026010BC704700BFF84A000870474FF0EC
:10042C00000070474068704710B5044603F029FA85
:10043C00204610BD70B504460368DE68142003F036
:10044C0024FA0546FFF76CFF29462046B04770BDDD
:10045C0010B541B10C46086103689B699847214669
:10046C0000F03CFA10BD034B034A2021034801F075
:10047C006DFC00BF004B0008084B0008384B00080F
:10048C0010B50446054B0360084621B1606000239B
:10049C00A360204610BDFFF765FFF7E76C4C000822
:1004AC008160704738B569B10446FFF7F9FF2368DE
:1004BC005B6920469847054600212046FFF7F0FF70
:1004CC00284638BD024B034A3621034801F03EFC56
:1004DC00004B00088C4B0008384B0008806800B1BA
:1004EC00704708B5024B034A5A21034801F02EFC11
:1004FC00C04B0008D04B0008384B000808B5FFF77C
:10050C00EDFF90F90430042B00D108BD024B034AD7
:10051C006421034801F01AFC004C0008384C000818
:10052C00384B0008C369C068984214BF00200120F2
:10053C00704708B500F01CFA08BD10B50C460869E8
:10054C0003681B699847C0B2042800D010BD20690D
:10055C000028FBD003685B689847F7E770B50C463A
:10056C0015461E46FFF7E5FF33462A46214600F0A6
:10057C0017FB70BD38B50C461546FFF7DAFF2A4657
:10058C00214600F07CFB38BD38B50C461546AC4214
:10059C0004D254F8040B03F074F9F8E738BD10B525
:1005AC00044603683BB1426A04324169FFF7ECFF31
:1005BC00206803F066F9204610BD000010B5044613
:1005CC00034B40F8043BFFF7EAFF204610BD00BF89
:1005DC00C04C000810B50446044B40F8043BFFF730
:1005EC00DEFF204603F04DF9204610BDC04C00083C
:1005FC0010B50446044B0360044B83600C30FFF7CA
:10060C00CEFF204610BD00BFD04C0008C04C0008E7
:10061C0010B50446FFF7ECFF204603F032F92046F4
:10062C0010BD10B50446C06803F02BF963691A1DA0
:10063C0062615B68E36003F500722261A36010BD28
:10064C0038B50446237953B304F10800FFF76AFF69
:10065C000028F9D163691D6804F10C00E269043AC1
:10066C009A4216D0043363611DB129462046FFF728
:10067C0064FF95F90430B3F1FF3F0DD02B7B13F0E1
:10068C00010FDFD0002DDDD02B685B682846984722
:10069C00D8E7FFF7C6FFE7E700232371EEE738BD85
:1006AC0008B5FFF7CDFF08BD38B50C461546AC4272
:1006BC0006D24FF4007003F0E8F844F8040BF6E7A8
:1006CC0038BD2DE9F04383B004460D46CB095E1CC2
:1006DC00082200920333019393422FD86B4618687B
:1006EC006060B0F1005F2BD2800003F0CEF8804642
:1006FC0020606768BF1B7F0800EB870909EB860643
:10070C00324649462046FFF7CFFFC4F8149058F8FC
:10071C002720E26002F500732361331F636256F8F1
:10072C00043CE36103F500712162A26005F07F05D2
:10073C0003EB8503A36103B0BDE8F08301ABCEE707
:10074C0003F0C2F810B504460A4B03600123037191
:10075C000021C160016141618161C161016241623D
:10076C008162C16201630C30FFF7ABFF024BA360E7
:10077C00204610BDD04C0008C04C00082DE9F047B5
:10078C0082B0064601919046426A4069171ABD1024
:10079C0001350D447368B3EB450F22D9D6F800C070
:1007AC005C1B6408A400B8F1000F01D0890000E0C4
:1007BC0000210C446444A04208D9131D1A1A984213
:1007CC0039D00146204603F0EBF834E0131D3A1DF6
:1007DC00A5181A1A98422ED00146A81A03F0E0F870
:1007EC0029E0321D994236D81268134403F10209EC
:1007FC00B9F1005F31D24FEA890003F046F8824626
:10080C00A9EB05046408A400B8F1000F27D0019DE2
:10081C00AD002C4454447169736A04335A1A9942DA
:10082C0002D0204603F0BCF8306803F02AF8C6F872
:10083C0000A0C6F8049074612368F36003F500739C
:10084C003361E3197362E359F36103F500733362A7
:10085C0002B0BDE8F08701AAC6E703F035F8002521
:10086C00D7E7000070B50D46436A42699B1A9B108E
:10087C005A1E8369C1695B1A9B1003EBC213026990
:10088C008168521A03EBA2036FF0604293421BD0B3
:10089C0004464368426A0168521AA3EBA203012B77
:1008AC0015D9666A4FF4007002F0EFFF7060A3690F
:1008BC002A681A60636A1A1D62625B68E36103F559
:1008CC0000722262A36170BD034803F003F800229A
:1008DC000121FFF753FFE4E7884C000800B583B013
:1008EC0001910C308269036A043B9A4206D0116074
:1008FC0083690433836103B05DF804FB01A9FFF73E
:10090C00B1FFF8E7704710B5044602F0BAFF204675
:10091C0010BD000030B4042505718160017B41F0ED
:10092C00010101730361034B03604261826130BCBE
:10093C00704700BFE04C000802690B699A4201D075
:10094C000020704782688B689A4201D00020704763
:10095C0001207047054A02600022426000F1080144
:10096C00C160816002614261704700BF904D000818
:10097C00084B1B6813B1074B1868704710B518204B
:10098C0002F083FF0446FFF7E5FF024B1C60014BAE
:10099C00186810BDDC0000204160704708B508697C
:1009AC000368DB68984708BD10B50C4601F092FA55
:1009BC000D4B1B6803FB04F30C49A1FB03239B09A0
:1009CC00013BB3F1807F09D2094A5360094BF021F6
:1009DC0083F823100023936007231360054B002238
:1009EC0083F8232010BD00BF30000020D34D6210CF
:1009FC0010E000E000ED00E008B543680BB90A23F5
:100A0C0043604168FFF7D0FF08BD38B50C460D6850
:100A1C008368013B8360084602F051FF204602F0D8
:100A2C0030FF284638BDF8B542684369134443612A
:100A3C00054655F8083F9D4206D0044699688B69D7
:100A4C009B1A8B61002B00DDF8BD0269012A05D9C8
:100A5C008268126890688269D31A83612046FFF716
:100A6C009DFF04F10807A668BB68013BBB603046DC
:100A7C0002F025FF304602F004FFA06806E0204695
:100A8C00FFF78CFF31463846FFF7BFFF064685421D
:100A9C00DAD081688B69002BF1D0D5E710B5054C05
:100AAC0001232370FFF764FFFFF7BDFF00232370C2
:100ABC0010BD00BF25010020F8B505460E461746AF
:100ACC000C2002F0E2FE04463B688360314602F0E3
:100ADC00EFFEAB680133AB602046F8BDF0B583B0D8
:100AEC000646019101F016FC354655F8084FA54213
:100AFC0044D0A3689A69019FBB699A4210DA9B1A89
:100B0C00BB6120680124014685421BD083689A6929
:100B1C00BB699A4216DA9B1ABB6100680134F2E792
:100B2C000C2002F0B2FE019B8360214602F0C0FE55
:100B3C00AB680133AB60A268019B996993695B1A3E
:100B4C00936111E001AA06F10800FFF7B5FF3369C4
:100B5C0001349C4208D203689D4209D09A68019BDB
:100B6C00996993695B1A936101F0E6FB03B0F0BDE0
:100B7C00084B094ABA21094801F0E8F80C2002F0A8
:100B8C0084FE019B8360214602F092FE336901339F
:100B9C003361E9E7E84C0008004D0008304D0008CF
:100BAC002DE9F04180460D4616461F461C2002F0EA
:100BBC006CFE04463B4632462946FFF7ABFE1CB1A1
:100BCC0021464046FFF78AFFBDE8F08138B505465F
:100BDC000068854204D0046802F053FE2046F8E712
:100BEC0038BD000010B50446034B40F8083BFFF736
:100BFC00EDFF204610BD00BF904D000810B5044617
:100C0C00FFF7F0FF204602F03CFE204610BD2DE918
:100C1C00F04188B080461346002201A8FFF77AFE07
:100C2C0001F078FBD8F8084000E0246808F10806C9
:100C3C002746B4421BD0A56801A92846FFF77CFEC5
:100C4C000028F2D023689E4204D09A68A96993695F
:100C5C000B449361394608F10800FFF7D6FE0446B1
:100C6C00002DE3D02B685B6828469847DEE701F03F
:100C7C0063FB01A8FFF746FE08B0BDE8F08108B59C
:100C8C00FFF7C5FF08BD000010B50446B0F5E06FD6
:100C9C000BD0B0F5C06F08D0B0F5A06F05D0B0F593
:100CAC00806F02D0B0F5407F06D144F0BF6444F4AD
:100CBC000034044BDC6010BD6321034801F06AF87A
:100CCC00F3E700BF00ED00E0984D000810B50446B6
:100CDC00C378012B26D863780F2B28D8A3780F2B39
:100CEC002AD8E3786BB31C4BDA68D243C2F30222E6
:100CFC00C2F104000F2323FA02F261788140A37839
:100D0C0013400B431B012278DBB214490A4482F8CE
:100D1C000033237803F01F005B090122824041F865
:100D2C00232010BD75210E4801F034F8D3E776214D
:100D3C000B4801F02FF8D1E77721094801F02AF888
:100D4C00CFE7237803F01F015B0901228A4020338F
:100D5C00024941F82320E4E700ED00E000E100E067
:100D6C00984D000810B50446431E012B2FD90428BA
:100D7C002DD008282BD0102829D0202827D0402867
:100D8C0025D0802823D0B0F5807F20D0B0F5007F0F
:100D9C001DD0B0F5806F1AD0B0F5006F17D0B0F53C
:100DAC00805F14D0B0F5005F11D0B0F5804F0ED03D
:100DBC00B0F5004F0BD0B0F5803F08D0B0F5003F38
:100DCC0005D0B0F5802F02D0B0F5002F08D1094A1C
:100DDC00136823405269224207D043B9002005E032
:100DEC00E521054800F0D6FFF1E7002010BD0120F9
:100DFC00FCE700BF00040140284E000810B5044673
:100E0C00030D1B0503B918B9FC21034800F0C2FF00
:100E1C00024B5C6110BD00BF284E0008000401406D
:100E2C00F8B505460C46494B98421BD003F5806338
:100E3C00984217D003F58063984213D003F5806372
:100E4C0098420FD003F5806398420BD003F5806372
:100E5C00984207D003F58063984203D0B2213C48F6
:100E6C0000F098FFE3786BB1042B0BD0282B09D042
:100E7C00482B07D0142B05D0102B03D01C2B01D0E2
:100E8C00182B14D12388BBB1E37803F00F0630463E
:100E9C0013F0100F06D0A378013BDBB2022B10D855
:100EAC00A078304323785BB32E68002310E0B32185
:100EBC00274800F06FFFE5E7B421254800F06AFFF2
:100ECC00E2E7BB21224800F065FFE9E76A610133E4
:100EDC00072B14D801229A40218832EA0101F6D15D
:100EEC0099000F278F4026EA070600FA01F10E43FE
:100EFC00E1782829EAD04829E9D12A61E7E72E6070
:100F0C002388FF2B20D96E68002302E06A6115E06C
:100F1C000133072B17D803F1080101228A402188DD
:100F2C0032EA0101F4D199000F278F4026EA070617
:100F3C0000FA01F10E43E1782829E7D0E17848293D
:100F4C00E6D12A61E4E76E60F8BD00BF00080140FD
:100F5C00C44E000870B504460D4616462D4B9842FB
:100F6C001CD003F58063984218D003F58063984237
:100F7C0014D003F58063984210D003F58063984237
:100F8C000CD003F58063984208D003F58063984237
:100F9C0004D040F28D11204800F0FCFE6B1E9BB279
:100FAC00012B23D9042D21D0082D1FD0102D1DD09D
:100FBC00202D1BD0402D19D0802D17D0B5F5807F5A
:100FCC0014D0B5F5007F11D0B5F5806F0ED0B5F506
:100FDC00006F0BD0B5F5805F08D0B5F5005F05D07C
:100FEC00B5F5804F02D0B5F5004F04D1012E08D8CD
:100FFC006EB1256170BD4FF4C771074800F0CAFE91
:10100C00F4E740F28F11044800F0C4FEF0E765618C
:10101C00F0E700BF00080140C44E000810B4294B93
:10102C005B6803F00C03042B2BD0082B2CD013B1D2
:10103C00254B036001E0244B036022494B68C3F34A
:10104C000313224CE35CDAB20368D34043604A6872
:10105C00C2F30222A25CD2B223FA02F282604A6884
:10106C00C2F3C222A25CD2B2D340C3604A68C2F3BC
:10107C00813217498A5CD2B2B3FBF2F3036110BC24
:10108C007047114B0360D8E70E4A53685268C3F39C
:10109C008343023312F4803F04D10E4A02FB03F364
:1010AC000360CAE7074A526812F4003F04D0094AA9
:1010BC0002FB03F30360C0E7034A02FB03F3036084
:1010CC00BBE700BF0010024000127A0008000020AD
:1010DC000400002000093D0038B504460D460E4BB7
:1010EC00034003B920B940F24A410C4800F052FECB
:1010FC00012D05D855B10A4B986904439C6138BD44
:10110C0040F24B41054800F045FEF3E7044B98696B
:10111C0020EA04049C61F2E70200C0FF604F000863
:10112C000010024038B504460D460E4B184200D153
:10113C0020B940F269410C4800F02CFE012D05D875
:10114C0055B10A4BD8690443DC6138BD40F26A41A1
:10115C00054800F01FFEF3E7044BD86920EA0404AD
:10116C00DC61F2E700360181604F0008001002409C
:10117C0038B504460D460E4B034003B920B940F276
:10118C00A4410C4800F006FE012D05D855B10A4BC0
:10119C00D8680443DC6038BD40F2A541054800F036
:1011AC00F9FDF3E7044BD86820EA0404DC60F2E7AD
:1011BC000200C0FF604F00080010024038B5044622
:1011CC000D460E4B184200D120B940F2C3410C48D9
:1011DC0000F0E0FD012D05D855B10A4B1869044308
:1011EC001C6138BD40F2C441054800F0D3FDF3E763
:1011FC00044B186920EA04041C61F2E700360181F3
:10120C00604F00080010024010B504461C4B984279
:10121C000BD0A3F57843984207D003F5806398422E
:10122C0003D07A21174800F0B5FD154B9C4206D02F
:10123C00154B9C420ED0154B9C4216D010BD012173
:10124C004FF48050FFF794FF00214FF48050FFF7CC
:10125C008FFFF3E701214FF48040FFF7AFFF002130
:10126C004FF48040FFF7AAFFE8E701214FF400405C
:10127C00FFF7A4FF00214FF40040FFF79FFFDDE7CD
:10128C0000300140F84F000800380040003C00409E
:10129C002DE9F04105460C464D4B98420BD0A3F579
:1012AC007843984207D003F58063984203D0A3217A
:1012BC00484800F06FFD238843B1B3F5806F05D02B
:1012CC00B3F5004F02D0B3F5404F53D16388B3F55B
:1012DC00827F01D0002B52D1A388B3F5006F01D0CF
:1012EC00002B51D1E3880BB1022B52D12389012B56
:1012FC0054D86389B3F5007F01D0002B53D1A38957
:10130C006BB1082B0BD0102B09D0182B07D0202B2E
:10131C0005D0282B03D0302B01D0382B48D1E389B2
:10132C000BB1802B49D1238A002B4BD02B8803F493
:10133C004152B4F800E0B4F80280B4F804C0E78875
:10134C0026896089A189E3894EEA080E4CEA0E0CC5
:10135C0047EA0C073E43304301430B4313432B80B6
:10136C00AB8B9BB223F400639BB2AB83238A2B829F
:10137C00BDE8F081A621174800F00CFDA6E7A721D7
:10138C00144800F007FDA7E7A821124800F002FD61
:10139C00A8E7A9210F4800F0FDFCA7E7AA210D48FA
:1013AC0000F0F8FCA5E7AB210A4800F0F3FCA6E737
:1013BC00AC21084800F0EEFCB1E7AD21054800F087
:1013CC00E9FCB0E7AE21034800F0E4FCAEE700BF57
:1013DC0000300140F84F000838B504460D46134B59
:1013EC0098420CD0A3F57843984208D003F580635B
:1013FC00984204D040F2B7110D4800F0CBFC012DFF
:10140C0006D85DB123889BB243F04003238038BDDE
:10141C004FF4DC71064800F0BDFCF2E723889BB268
:10142C0023F040039BB22380F1E700BF0030014062
:10143C00F84F000838B504460D46094B98420CD0BD
:10144C00A3F57843984208D003F58063984204D002
:10145C0040F23A21034800F09DFCA58138BD00BF45
:10146C0000300140F84F000810B50446094B984273
:10147C000CD0A3F57843984208D003F580639842CA
:10148C0004D040F24A21044800F084FCA08980B2C8
:10149C0010BD00BF00300140F84F000838B50546BC
:1014AC000C46164B98420CD0A3F57843984208D0C2
:1014BC0003F58063984204D040F21631104800F0D6
:1014CC0069FC802C0DD0402C0BD0202C09D0102C7A
:1014DC0007D0082C05D0042C03D0022C01D0012CF1
:1014EC0004D12B891C4207D0012038BD40F21731A2
:1014FC00034800F04FFCF4E70020F6E70030014011
:10150C00F84F000830B587B004460D46674B98423B
:10151C0013D0A3F5744398420FD003F5806398421F
:10152C000BD003F58063984207D003F58063984293
:10153C0003D0B8215E4800F02DFC2B68013B5D4ABE
:10154C00934200F28580AB881BB1B3F5805F40F00D
:10155C008480EB8843B1B3F5805F05D0B3F5005FB1
:10156C0002D0B3F5405F7DD12B892BB1B3F5806FE1
:10157C0002D0B3F5C06F7AD16A8922F00C039BB20A
:10158C0003B91AB9BD214A4800F004FCAB8943B138
:10159C00B3F5807F05D0B3F5007F02D0B3F5407F63
:1015AC006AD1AB8973B1414B9C420BD0A3F5744308
:1015BC009C4207D003F580639C4203D0C2213C4877
:1015CC0000F0E8FB238A9BB2EA8823F440531343D0
:1015DC002382A3899BB2A98828896A8901430A437B
:1015EC0023F4B05323F00C031343A381A38A9BB2BF
:1015FC00AA8923F440731343A38201A8FFF70EFDBD
:10160C002A4B9C423DD0039BA28912F4004F3AD145
:10161C0003EB830303EB830329688900B3FBF1F12C
:10162C00254BA3FB012358090501642300FB13136D
:10163C00A28912F4004F2FD11B0132331E4AA2FB98
:10164C000323C3F343132B439BB2238107B030BD59
:10165C00B921174800F09EFB75E7BA21144800F039
:10166C0099FB76E7BB21124800F094FB7CE7BC2188
:10167C000F4800F08FFB7FE7BE210D4800F08AFB7E
:10168C008FE7049BC0E703EB830303EB8303296819
:10169C004900B3FBF1F1C3E7DA003232064BA3FB8E
:1016AC000232C2F3421242EA0503CDE70038014090
:1016BC00905000081FAA44001F85EB5170B50546D9
:1016CC000C46254B98420CD0A3F57443984208D095
:1016DC0003F58063984204D04FF499711F4800F0D1
:1016EC0059FB238813B1B3F5006F1CD1638813B178
:1016FC00B3F5806F1DD1A38813B1B3F5007F1ED154
:10170C00E38813B1B3F5807F1FD12A8A92B2208867
:10171C006688A188E388304301430B4322F470624E
:10172C0013432B8270BD40F233110C4800F032FB96
:10173C00DCE74FF49A71094800F02CFBDBE740F230
:10174C003511064800F026FBDAE74FF49B7103488D
:10175C0000F020FBD9E700BF003801409050000892
:10176C0038B504460D46174B984214D0A3F5744374
:10177C00984210D003F5806398420CD003F5806337
:10178C00984208D003F58063984204D04FF4B171AD
:10179C000D4800F0FFFA012D06D85DB1A3899BB26C
:1017AC0043F40053A38138BD40F26311064800F0A6
:1017BC00F1FAF2E7A3899BB223F400539BB2A38105
:1017CC00F1E700BF003801409050000870B50546A5
:1017DC000C461646384B984214D0A3F574439842E5
:1017EC0010D003F5806398420CD003F580639842C7
:1017FC0008D003F58063984204D040F289112F4839
:10180C0000F0C8FA282C19D040F227739C4215D04E
:10181C0040F226639C4211D040F225539C420DD0DD
:10182C0040F224439C4209D040F646039C4205D02A
:10183C0040F66A139C4201D0602C16D1012E1AD8A6
:10184C0040F66A139C421CD0C4F3421304F01F04EC
:10185C00012101FA04F48B4224D0022B24D014353C
:10186C0026B32B681C432C6070BD4FF4C571134814
:10187C0000F090FAE2E740F28B11104800F08AFA7F
:10188C00DEE70D4B9D42DFD0A3F574439D42DBD0C8
:10189C0003F580639D42D7D040F28F11074800F0CA
:1018AC0079FAD1E70C35DBE71035D9E72B6823EA59
:1018BC0004042C60D8E700BF0038014090500008A9
:1018CC0038B505460C46124B984214D0A3F5744318
:1018DC00984210D003F5806398420CD003F58063D6
:1018EC00984208D003F58063984204D040F25F21FF
:1018FC00084800F04FFAB4F5007F03D2C4F3080493
:10190C00AC8038BD4FF41871024800F043FAF5E78B
:10191C00003801409050000810B504460D4B984219
:10192C0014D0A3F57443984210D003F58063984209
:10193C000CD003F58063984208D003F5806398427D
:10194C0004D04FF41C71044800F024FAA088C0F3B2
:10195C00080010BD003801409050000838B505460D
:10196C000C46274B984214D0A3F57443984210D0E0
:10197C0003F5806398420CD003F58063984208D03D
:10198C0003F58063984204D040F286311D4800F084
:10199C0001FA012C13D0802C11D0402C0FD0202C0C
:1019AC000DD0102C0BD0B4F5807F08D0B4F5007F8F
:1019BC0005D0082C03D0042C01D0022C07D1B4F58F
:1019CC00007F0AD02B881C4218D0012038BD40F271
:1019DC0087310C4800F0DEF9F1E7094B9D42F1D05C
:1019EC00A3F574439D42EDD003F580639D42E9D08D
:1019FC0040F28B31034800F0CDF9E3E70020E5E736
:101A0C00003801409050000838B505460C461C4B78
:101A1C00984214D0A3F57443984210D003F5806318
:101A2C0098420CD003F58063984208D003F580638C
:101A3C00984204D040F2B631124800F0ABF924F4CD
:101A4C0058739BB203B924B940F2B7310D4800F07A
:101A5C00A1F914F4007F0FD0094B9D420CD0A3F5D3
:101A6C0074439D4208D003F580639D4204D040F23C
:101A7C00BB31044800F08EF9E443A4B22C8038BD8D
:101A8C00003801409050000838B505460C463D4BD7
:101A9C00984214D0A3F57443984210D003F5806398
:101AAC0098420CD003F58063984208D003F580630C
:101ABC00984204D040F2D931334800F06BF9282C0D
:101ACC0020D040F227739C421CD040F226639C42EB
:101ADC0018D040F225539C4214D040F224439C422F
:101AEC0010D040F646039C420CD040F66A139C4240
:101AFC0008D0B4F5587F05D0B4F5187F02D0B4F5F2
:101B0C00B07F1BD140F66A139C421DD0C4F3421225
:101B1C0004F01F0101238B40012A26D0022A28D071
:101B2C00AA8A92B21340240A012202FA04F42A88E7
:101B3C0092B222400BB312BB00201FE040F2DA310C
:101B4C00114800F027F9DDE70E4B9D42DED0A3F5DE
:101B5C0074439D42DAD003F580639D42D6D040F2A7
:101B6C00DE31094800F016F9D0E7AA8992B2134089
:101B7C00D9E72A8A92B21340D5E7002038BD01205C
:101B8C00FCE700BF003801409050000838B505460E
:101B9C000C46254B984214D0A3F57443984210D0B0
:101BAC0003F5806398420CD003F58063984208D00B
:101BBC0003F58063984204D040F222411B4800F0A8
:101BCC00E9F840F226639C420BD040F225539C422C
:101BDC0007D040F646039C4203D040F66A139C4261
:101BEC000BD140F66A139C420DD0240A0123A3406A
:101BFC009BB2DB439BB22B8038BD40F223410B4898
:101C0C0000F0C8F8EDE7084B9D42EED0A3F5744305
:101C1C009D42EAD003F580639D42E6D040F2274115
:101C2C00024800F0B7F8E0E7003801409050000897
:101C3C0008B500F001F8FEE708B5034801F00CF810
:101C4C000120FFF7F8FF00BF2C51000808B5034630
:101C5C000C4A12685AB10B4A1068033323F0030381
:101C6C000344094A934206D8064A136008BD054A44
:101C7C0006491160EFE701F061FE0C2303604FF0A1
:101C8C00FF30F3E7E0000020004C0020340500207A
:101C9C0001230360014B0B60704700BF180000204C
:101CAC0008B501F04BFE582303604FF0FF3008BD20
:101CBC0008B501F043FE582303604FF0FF3008BD18
:101CCC0008B501F03BFE58230360002008BD08B5A1
:101CDC0001F034FE582303604FF0FF3008BD08B507
:101CEC0001F02CFE582303604FF0FF3008BD0000BC
:101CFC00F8B5171E24DB0D4600240CE096F90010F5
:101D0C0089B21148FFF7DCFD80210F48FFF726FE52
:101D1C000028F9D00134BC4214DA2E192B570A2BA7
:101D2C00ECD116F9013C0D2BE8D00D210648FFF73C
:101D3C00C7FD80210448FFF711FE0028F9D0DDE72C
:101D4C004FF0FF373846F8BD0044004000B583B073
:101D5C000C461946134682B10A4A83B1019300928C
:101D6C0023460246084800F077FF084B5B6813F0E7
:101D7C00010F00D000BEFFF75FFF054AEDE7044BF3
:101D8C00ECE700BF4051000850510008002004E06F
:101D9C004C51000808B50A460146024800F05CFFA9
:101DAC00FFF74AFF8051000808B500F06BF808BD3A
:101DBC0008B500F08FF808BD82B0002301930093A2
:101DCC002C4A136843F4803313602A4B1B6803F4CA
:101DDC0000330093019B01330193009B1BB9019BC2
:101DEC00B3F5A06FF1D1234B1B6813F4003F06D061
:101DFC0001230093009B012B04D002B070470023F9
:101E0C000093F7E71C4B1A6842F010021A601A682C
:101E1C0022F003021A601A6842F002021A60A3F55B
:101E2C0080535A685A605A685A605A6842F4806201
:101E3C005A605A6822F47C125A605A6842F4E812CA
:101E4C005A601A6842F080721A600A4B1B6813F0D1
:101E5C00007FFAD0074B5A6822F003025A605A6886
:101E6C0042F002025A60034B5B6803F00C03082B30
:101E7C00F9D1C2E7001002400020024008B5FFF77C
:101E8C009BFF08BD08B5104B1A6842F001021A609E
:101E9C0059680E4A0A405A601A6822F0847222F479
:101EAC0080321A601A6822F480221A605A6822F46E
:101EBC00FE025A604FF41F029A60FFF7DFFF044BDB
:101ECC004FF000629A6008BD001002400000FFF85D
:101EDC0000ED00E01F4B5B6803F00C03042B15D0E6
:101EEC00082B17D01BB11C4B1C4A1A6002E01A4B72
:101EFC001A4A1A60174B5B68C3F30313184AD35C76
:101F0C00DAB215490B68D3400B607047124B134A79
:101F1C001A60EFE70F4A53685268C3F383430233E6
:101F2C0012F4803F05D10F4A02FB03F30A4A1360F7
:101F3C00E0E7084A526812F4003F05D0094A02FB58
:101F4C0003F3054A1360D5E7044A02FB03F3024A84
:101F5C001360CFE7001002403000002000127A001E
:101F6C002000002000093D00704770477047704703
:101F7C0010B5044601F085FC204610BD08B50C4B8D
:101F8C00036000230371836001290BD002290CD05C
:101F9C0029B1084B084A16210848FFF7D7FE084B11
:101FAC00836008BD074B8360FBE7074B8360F8E752
:101FBC0080520008AC510008B4510008C45100080C
:101FCC000030014000380040003C004010B50128B2
:101FDC001ED0022830D028B1214B224A452122485C
:101FEC00FFF7B4FE214B1B6813F0010F03D0204800
:101FFC000028F1D010BD1E4C00212046FFF7BEFF7B
:10200C001A4B01221A601B4801F092FC2046EFE7A4
:10201C00194B1B6813F0010F01D01848E8E7174C57
:10202C0001212046FFF7AAFF134B01221A60144826
:10203C0001F07EFC2046DBE7124B1B6813F0010F0E
:10204C0001D01148D4E7104C02212046FFF796FF2F
:10205C000C4B01221A600D4801F06AFC2046C7E7C0
:10206C00AC5100083C520008C4510008E8000020A4
:10207C00F4000020771F0008EC0000200001002075
:10208C00791F0008F00000200C0100207B1F0008C5
:10209C0003790BB10020704730B583B004460121A1
:1020AC00017141F21C00FFF717F8A268124B9A421B
:1020BC001BD1E023ADF8043003258DF8065018230E
:1020CC008DF807300D4C01A92046FEF7A9FE102310
:1020DC00ADF804308DF806508DF8073001A9204674
:1020EC00FEF79EFE012003B030BD054B054A6D2165
:1020FC000548FFF72BFE00BF0030014000080140EF
:10210C00AC51000860520008C451000808B5012108
:10211C008068FFF761F908BD08B58068FFF774F8AF
:10212C0008BD000010B50C4602210A48FFF7B6F9AD
:10213C000028F9D021460748FFF77CF90121054812
:10214C00FFF7ACF90028F9D00248FFF78DF9C0B2BF
:10215C0010BD00BF00300140704710B5044601F0BF
:10216C0090FB204610BD000008B5184B0360FF2300
:10217C00037100238360022912D8154B53F82130C8
:10218C00EBB9134B43F821000171012911D002293D
:10219C0012D059B10F4B104A24211048FFF7D6FD2D
:1021AC000F4B0D4A0D210D48FFF7D0FD0D4B8360F1
:1021BC0008BD0D4B8360FBE70C4B8360F8E7054BC8
:1021CC00054A29210548FFF7C1FD00BF68530008E7
:1021DC0018010020AC510008A0520008BC520008A5
:1021EC00885200080038014000440040004800407C
:1021FC0008B501218068FFF7B3FA012008BD000083
:10220C002DE9F04188B003794BB104460D46022B01
:10221C0005D0012B09D0002008B0BDE8F081384B67
:10222C00384A38213848FFF791FD01210520FEF787
:10223C0053FF01214FF40030FEF774FF4FF00408F8
:10224C00ADF8008018238DF8033003268DF802605A
:10225C002E4F69463846FEF7E3FD0823ADF80030F3
:10226C008DF803808DF8026069463846FEF7D8FD7C
:10227C000027ADF80870ADF80A704FF40073ADF894
:10228C000C30ADF80E7002A9A068FFF717FA2623E0
:10229C008DF804308DF805608DF8067001268DF8E8
:1022AC0007600DEB0800FEF711FD0495ADF81470F6
:1022BC00ADF81670ADF81870ADF81C700C23ADF8B5
:1022CC001A3004A9A068FFF71DF940F22551A06847
:1022DC00FFF75CFC40F22661A068FFF757FC324622
:1022EC0040F22551A068FFF771FA094A93889BB216
:1022FC0043EA080393802046FFF77AFF30468BE7CA
:10230C00AC51000834530008BC52000800080140CE
:10231C0000300140064B1B7843B9064B1B7803B9C0
:10232C0072B6044A13780133DBB21370704700BFE6
:10233C002501002024010020054B1B783BB9054AE0
:10234C001378013BDBB21370137803B962B6704794
:10235C0025010020240100207047704710B5044669
:10236C0001F08FFA204610BD10B50446044B0360F3
:10237C0000202071FFF72AFEA060204610BD00BF90
:10238C007853000808B5084B1B6813F0010F01D0F7
:10239C00064808BD0548FFF7E7FF034B01221A600A
:1023AC00034801F0C5FAF3E7280100202C010020B6
:1023BC006723000810B586B004468068FFF7ACFEB2
:1023CC000023ADF804304FF48272ADF80620ADF85E
:1023DC0008300222ADF80A200122ADF80C204FF48F
:1023EC000072ADF80E20ADF81030ADF812300723A6
:1023FC00ADF8143001A90448FEF74AFFA068FFF7B6
:10240C0085FE06B010BD00BF0030014010B586B08F
:10241C0004468068FFF780FE0023ADF804304FF4CB
:10242C008272ADF80620ADF80830ADF80A30ADF880
:10243C000C304FF40072ADF80E202022ADF81020B5
:10244C00ADF812300723ADF8143001A90348FEF79C
:10245C001FFFA068FFF75AFE06B010BD0030014008
:10246C0038B503790BB1002038BD04460125057140
:10247C008068FFF70DFE2046FFF7C8FF2846F3E7FC
:10248C00704710B5044601F0FCF9204610BD000061
:10249C00024A026000220271816070478853000872
:1024AC0003790BB10020704710B5012404718068CA
:1024BC00FFF7D6FF204610BD08B58068FFF77AFFFE
:1024CC0008BD08B58068FFF7A1FF08BD38B5054603
:1024DC000C46002204210448FEF73CFDAB68214663
:1024EC009868FFF71FFE38BD000C014038B5054653
:1024FC000C46012204210448FEF72CFDAB68214652
:10250C009868FFF70FFE38BD000C0140704770470C
:10251C007047704770477047704770477047542238
:10252C0002603022426070470120704701207047E2
:10253C0030B40C68542C19DC4B68302B16DC194663
:10254C00002B15DBC910542505FB01415C4203F03F
:10255C00070304F0070458BF63424418247CB2F10B
:10256C00FF3F07D0012A0CD001440C7430BC7047DB
:10257C00D91DE7E7DBB2012202FA03F324EA0304D4
:10258C00F2E7DBB202FA03F31C43E4B2ECE700001F
:10259C0010B50446054B03F108020260583340F8AD
:1025AC00043FFFF76DFF204610BD00BF38550008F3
:1025BC00A0F10400FFF7ECBF10B50446FFF7E8FFED
:1025CC00204601F05EF9204610BDA0F10400FFF793
:1025DC00F3BF82B00023019302238DF804300198DD
:1025EC0002B0704708B54FF4FC720021103001F0B6
:1025FC00F1F908BD10B50C68532C1DDC4B682F2B62
:10260C0020DC1A46002B23DBD210542101FB0241A3
:10261C005A4203F0070302F0070258BF5342DBB2E1
:10262C00012202FA03F3DAB20844017C0B40934214
:10263C0010D04FF0FF3010BD074B084A61210848FD
:10264C00FFF784FB074B054A62210548FFF77EFB29
:10265C00DA1DD9E70120EEE790530008A0530008DB
:10266C00F053000874540008F0B583B005461646C4
:10267C001F460C4661B3284B284AA7212848FFF770
:10268C0065FB019B009A542101FB03231A46002B86
:10269C000DDBD210594203F0070301F0070158BFBC
:1026AC004B4201219940B35C0B43B35424E0DA1D37
:1026BC00EFE7D210594203F0070301F0070158BFAE
:1026CC004B4201219940B35C23EA0103B35401341A
:1026DC00BC421ED2A108134BA3FB01318B08542220
:1026EC0002FB13438908009301912B68DB6969464F
:1026FC00284698470128C4D0B0F1FF3FE7D1019B91
:10270C00009A542101FB03231A46002BD1DADA1D5F
:10271C00CFE703B0F0BD00BF885400089C540008FC
:10272C00F0530008310CC33038B504460546084B4D
:10273C0045F8043BFFF726FE01462846FFF7A8FEA6
:10274C00044B03F10802226058336360204638BD05
:10275C00F05400083855000808B529B10022802132
:10276C000248FEF7F7FB08BD0122F8E70010014014
:10277C0008B531B100224FF480610348FEF7EAFB43
:10278C0008BD0122F7E700BF0010014070B50546F7
:10279C000E46041D2046FFF78FFE01212846FFF749
:1027AC00E7FF21212046FFF791FE46F080012046ED
:1027BC00FFF78CFE20212046FFF788FE00212846DB
:1027CC00FFF7D6FF2046FFF77CFE70BD38B50546F7
:1027DC00041D2046FFF770FE01212846FFF7C8FFB5
:1027EC0021212046FFF772FEC8212046FFF76EFE1E
:1027FC0006212046FFF76AFE13212046FFF766FEEE
:10280C0020212046FFF762FE08212046FFF75EFEDE
:10281C000C212046FFF75AFE00212846FFF7A8FF9F
:10282C002046FFF74EFE38BD70B50546061D3046F6
:10283C00FFF742FE01212846FFF79AFF8021304620
:10284C00FFF744FE40213046FFF740FE0024B4F56C
:10285C00FC7F06DA2B19197C3046FFF747FE013452
:10286C00F5E700212846FFF783FF3046FFF729FEE6
:10287C0070BD00002DE9F04182B00446012110200A
:10288C00FEF72AFC201DFFF70BFE4FF00408ADF8F5
:10289C00048003268DF8066010258DF80750234F11
:1028AC000DEB08013846FEF7BBFA012241463846CB
:1028BC00FEF750FB4FF49063ADF804308DF80660D2
:1028CC008DF807501A4D0DEB08012846FEF7A8FAB3
:1028DC0001224FF480612846FEF73CFB0122802147
:1028EC002846FEF737FB01212046FFF735FF4FF452
:1028FC00FA631A46013B002AFBD100212046FFF760
:10290C002BFF2046FFF762FF45212046FFF73EFFD5
:10291C0023685B6A4FF0FF31204698472046FFF74B
:10292C0083FF012002B0BDE8F08100BF000C014024
:10293C00001001402DE9F04782B006460F46924642
:10294C0098464FEAC1094D4605E0E21D19E069467B
:10295C0030469847013509EB0803AB4226D9AC0841
:10296C00154BA3FB0434A208542101FB1252A408FA
:10297C000092019433681B6A01FB04242246002C4C
:10298C00E3DBC7EBE2021AF80210624204F0070420
:10299C0002F0070258BF5442012202FA04F40C4020
:1029AC0064B2002CD3D14FF0FF32D0E73046FFF7A2
:1029BC003BFF02B0BDE8F087310CC33010B50446C4
:1029CC00044B03F10802026058334360FFF7E0FD4B
:1029DC00204610BDC4550008A0F10400FFF7EEBF5F
:1029EC0010B50446FFF7EAFF204600F04AFF2046E8
:1029FC0010BDA0F10400FFF7F3BF000010B50446B2
:102A0C00FFF792FE034B03F1080222605833636018
:102A1C00204610BDC455000870B582B005460E4660
:102A2C0061B1941B01940F2C0DD82868012C13D084
:102A3C00ACB12246314600F0A5FF10E09142F0D037
:102A4C000A4800F044FF002201A9284600F046FF86
:102A5C002860019BAB60E8E796F900300370019B9E
:102A6C006B602A680021D15402B070BD98550008E3
:102A7C0008B5FFF7FFFE08BD00B587B00146002280
:102A8C0001A800F047F94FF0FF3101A800F0A0FCBD
:102A9C0001A800F071FA01A800F080FA07B05DF807
:102AAC0004FBF0B58FB006460C4617461D460022B7
:102ABC00014601A800F02EF9314601A800F081FA78
:102ACC00ED00069707950AAB0893ECB1204601F090
:102ADC00B5F822184FF00003214608A8FFF79CFF19
:102AEC00012308AA06A901A800F078FA08980AABF5
:102AFC00984201D000F0C5FE01A800F03DFA01A8F3
:102B0C0000F04CFA0FB0F0BD621EE3E770B586B072
:102B1C0004460D4616460022014601A800F0FAF8BC
:102B2C00214601A800F04DFA01233246294601A89E
:102B3C0000F0E2FA01A800F01FFA01A800F02EFA4A
:102B4C0006B070BD08B54FF44070FEF79DF800F06C
:102B5C0023F808BD70470120704710B5044600F0FB
:102B6C0090FE204610BD0000034A02600022426025
:102B7C0001220272704700BF2C56000810B50446A3
:102B8C0003681B689847207210BD4160704708B5F8
:102B9C00FFF7FBFF08BD000008B50B4B1B6813F0DB
:102BAC00010F05D04FF4E1310848FFF729FB08BDB0
:102BBC0001210648FFF7D8FA034B01221A6004489A
:102BCC0000F0B6FEEEE700BF380100203C0100200B
:102BDC00912C000838B504460D4601F02FF88DB144
:102BEC00231813F9013C0A2B0CD00D232354431C3E
:102BFC000022E254FE2807DD084B094A3A21094815
:102C0C00FFF7A4F8FF2803DC204600F0FFFF38BDD7
:102C1C00054B034A3F210348FFF798F83856000844
:102C2C00545600087C560008EC5600080FB410B53A
:102C3C0082B004AA52F8041B0192064C204601F003
:102C4C001BF801212046FFF7C5FF02B0BDE810407C
:102C5C0004B07047480100200FB410B582B004AA2C
:102C6C0052F8041B0192064C204601F005F8012194
:102C7C002046FFF7AFFF02B0BDE8104004B070472C
:102C8C004801002008B50248FFF766FA08BD00BFEE
:102C9C003C01002008B54020FEF764F878B94FF4E9
:102CAC000070FEF75FF870B92020FEF7A7F88020BF
:102CBC00FEF7A4F84FF48070FEF7A0F808BD402092
:102CCC00FEF79CF8EBE74FF40070FEF797F8EBE794
:102CDC0010B54FF458710D48FEF7D6FE012807D0F9
:102CEC0040F225510948FEF7CFFE012804D010BD53
:102CFC00074B1A889B88F3E7044C20212046FEF7EB
:102D0C0083FE2046FEF708FEF1E700BF00440040BA
:102D1C000048004010B50446074B03604160002397
:102D2C00C3600374427421B108460B68DB68984792
:102D3C00A060204610BD00BF505D0008C36803B101
:102D4C0070472DE9F04188B004460D4641680B6888
:102D5C009B6868469847009E61680B689B6802A850
:102D6C009847039800FB06F007301DD4C01000F004
:102D7C009DFD0646E060A5B165682B68DF6A9B681F
:102D8C00294604A89847DDF8108061680B689B6899
:102D9C0006A89847079B03FB08F3324600212846F8
:102DAC00B84708B0BDE8F0810730DFE72DE9F04304
:102DBC008DB00D68002D1DDB07460C46164641688C
:102DCC000B689B6868469847009B9D4212DA6568C1
:102DDC00002D0FDB79680B689B6802A89847039B52
:102DEC009D4207DAFB68002B62D0B6F1FF3F04D09E
:102DFC00012E32D00DB0BDE8F083656879680B68A0
:102E0C009B6804A898472368049A02FB05335A422E
:102E1C0003F0070302F0070258BF53424FF00108BA
:102E2C0008FA03F36FEA0308D7F80C906568796821
:102E3C000B689B6806A898472368069A02FB053323
:102E4C00002B08DBDB10F96819F8032002EA0808EC
:102E5C0001F80380CCE70733F4E7656879680B6801
:102E6C009B6808A898472368089A02FB05335A42C6
:102E7C0003F0070302F0070258BF5342012202FA83
:102E8C0003F6D7F80C80656879680B689B680AA80C
:102E9C00984723680A9A02FB0533002B06DBDB10EC
:102EAC00F96818F803203243CA54A3E70733F6E74E
:102EBC00786803681B6A3246214698479AE770B5D2
:102ECC008AB001910092C368002B42D00446037C67
:102EDC00002B3ED100293CDB41680B689B6802A8A3
:102EEC009847039A019B9A4233DB009B002B30DB03
:102EFC0061680B689B6804A89847009B059A9A42E6
:102F0C0027DB019A934226DB01AB1D6861680B68D5
:102F1C009B6806A89847069B03FB05F561680B6840
:102F2C009B6808A89847009B019A9B1A002BB8BF76
:102F3C005B42089A03FB02F315F0070201D0AD1AAD
:102F4C00134460680268966AE26802EBD502E908ED
:102F5C00B0470AB070BD6B46D7E710B582B00446D7
:102F6C0041680B689B6868469847019A0021204687
:102F7C00FFF7A5FF02B010BD10B5044643680BB1B6
:102F8C00437C43B100236360E06818B100F07BFC24
:102F9C000023E36010BDFFF7E0FFF3E710B5044634
:102FAC00024B0360FFF7E8FF204610BD505D0008A0
:102FBC0010B50446FFF7F2FF204600F062FC2046F5
:102FCC0010BD38B505460C46FFF7D6FF6C6024B132
:102FDC002368DB6820469847A86038BD2DE9F04F80
:102FEC0089B0804601914068A8B1934699465368D0
:102FFC0063B398F8083098F90820002A12DB13F014
:10300C00020F1AD102AB019A92E8030083E8030085
:10301C004FF0000A43E0344B344A40F293113448E9
:10302C00FEF794FED8F80C20002AE8D103685C6CFB
:10303C004B465A460199A04708E001214046FFF74C
:10304C007DFEDFE798F81130002B45D109B0BDE8C3
:10305C00F08F563EF6B237E07A19039B2344069262
:10306C0007934A4606A94046FFF7A0FE0134062CFA
:10307C000CDCA6F1200303EB43031E4A02EB4303D3
:10308C005B5D234113F0010FF0D0E5E70135042D12
:10309C0001DC0024EBE70AF1010A06370297D8F8A5
:1030AC0004100B689B6804A89847049B043B029F80
:1030BC00BB42C7DDDBF804309A45C3D2DBF80030E5
:1030CC0013F80A60DF2EC4D8A6F12003DBB2912BD3
:1030DC0000D920260025DAE7019B5968CA1D404615
:1030EC00FFF7EDFEB2E700BF6C5A0008485B000822
:1030FC00E45A0008045700082DE9F04F85B0064645
:10310C0000910192406820B31F46337A13F0040FEC
:10311C0001D0F2681AB313F0020F27D1009B93E889
:10312C00030004AB03E90300019B1C685D686D1A86
:10313C00241A20D44FF00108002D22DB4FF0010996
:10314C00AC4239DD4FEA450AC4EB45054FF0000BA4
:10315C0023E0344B344A87213448FEF7F7FD0368EB
:10316C001C6B3B46019A0099A04755E00121304663
:10317C00FFF7E4FDD2E7002CB8BF64424FF0FF38F4
:10318C00DAE7002DB8BF6D424FF0FF39D8E7554450
:10319C00029B434402930BF1010B5C4528DB3A463E
:1031AC0002A93046FFF702FE002DF0DBA5EB44052B
:1031BC00039B4B440393EAE74FEA440AC5EB4404F0
:1031CC004FF0000B05E05444039B4B4403930BF16D
:1031DC00010B5D450CDB3A4602A93046FFF7E6FDD4
:1031EC00002CF0DBA4EB4504029B43440293EAE77A
:1031FC00737C8BB1009B1C1D019A101D52685B687F
:10320C009A420CDB214609689A4200DC204602688F
:10321C0001323046FFF753FE05B0BDE8F08F014692
:10322C00F1E700BF6C5A0008C45B0008E45A0008C0
:10323C002DE9F04792B007469DF96880406848B385
:10324C00894692461D46B8F1000F2ED03B7A13F0FA
:10325C00100F01D0FA681AB313F0020F40F08480FB
:10326C006B4699E8030083E80300DAF80030034466
:10327C005A1EDAF804300B44013B029203933DB121
:10328C000130009001310191013A0292013B03930C
:10329C00009E6FE04B4B4C4ADE214C48FEF756FD2E
:1032AC0003689C6B43465246A047002D55D03B7A91
:1032BC0013F0080F02D0FA68002A6BD013F0020F3B
:1032CC0070D1D9F80020D9F80430DAF804100B4486
:1032DC00013B069207932B4606AA49463846FFF750
:1032EC000BFFD9F80020D9F80430DAF804100B449D
:1032FC00013B08920993DAF800100A44013A0A9249
:10330C000B932B460AAA08A93846FFF7F5FED9F805
:10331C000030DAF800201344013BD9F80410DAF835
:10332C0004200A44013A0C930D920E930F912B46F4
:10333C000EAA0CA93846FFF7DFFED9F80030DAF8F0
:10334C0000201344013BD9F80420109311922B4612
:10335C004A4610A93846FFF7CFFE00233B747B7C0E
:10336C003BBB12B0BDE8F08701213846FFF7E6FC05
:10337C0076E70136029BB34297DB019C039BA34289
:10338C00F7DB04960594424604A93846FFF70EFD78
:10339C000134F3E7786803685C6B2B465246494668
:1033AC00A047DAE701213846FFF7C8FC01233B743C
:1033BC0087E7D9F80410DAF804200A443846FFF7F6
:1033CC007EFDCEE76C5A0008505C0008E45A0008F9
:1033DC00F0B591B00446406820B30D46237A13F043
:1033EC00010F29D003685B6A9847E668C6B1B5F14E
:1033FC00FF3F1DD0FF2561680B689B6802A89847AA
:10340C00029F61680B689B6804A89847059A02FBA9
:10341C0007F207320ED4D2102946304600F0DAFA01
:10342C0011B0F0BD264B274A36212748FEF78EFCFB
:10343C000025E0E70732EEE713F0020F0FD100266C
:10344C000C960D9661680B689B680EA898470095C2
:10345C0033460EAA0CA92046FFF7EAFEE0E700214E
:10346C002046FFF76BFCE668B5F1FF3F23D0FF2544
:10347C0061680B689B6806A89847069F61680B6893
:10348C009B6808A89847099A02FB07F2073214D4E4
:10349C00D2102946304600F09DFA637C002BBFD039
:1034AC0061680B689B680AA898470B9A0021204614
:1034BC00FFF705FDB4E70025DAE70732E8E700BFC0
:1034CC006C5A0008005D0008E45A000810B5044668
:1034DC00024B0360FCF7A2FF204610BD285E0008DB
:1034EC00A0F10C00FFF7F2BF10B50446FFF7EEFF9A
:1034FC00204600F0C6F9204610BDA0F10C00FFF7E5
:10350C00F3BF000038B504460848FFF78FFB1420C2
:10351C0000F0BBF9054622460021FCF757FF236853
:10352C00DB6829462046984738BD00BF585D000827
:10353C00A0F10C00FFF7E6BF38B504460848FFF7CA
:10354C0075FB142000F0A1F9054622460121FCF779
:10355C003DFF2368DB6829462046984738BD00BFED
:10356C00685D0008A0F10C00FFF7E6BFF8B5044653
:10357C00FCF7B4FF0546267C042E08D8DFE806F0DD
:10358C0003151F363D0090F90430012B0BD0237C22
:10359C00B34275D04FF00105013B032B72D8DFE825
:1035AC0003F03337455E2374F1E790F90430032BB5
:1035BC00EDD18368002BEAD102232374E7E790F95D
:1035CC000430042B09D095F90430032BDFD1AB6800
:1035DC00012BDCD103232374D9E72046FCF78EFFA3
:1035EC008368002BEFD104232374ECE790F90430AB
:1035FC00022BCCD101232374C9E790F90430022BA0
:10360C00C5D101232374C2E71F48FFF70FFB39E034
:10361C001E48FFF70BFB23689B69204698472346FF
:10362C001B4A12680021FCF799FF2BE01948FFF7A1
:10363C00FDFA23689B692046984722460021FCF737
:10364C0099FF2368DF68142000F01FF9064600225A
:10365C001146FCF7D3FE31462046B84712E00E481F
:10366C00FFF7E4FA2368DF68142000F00EF9064631
:10367C0000221146FCF7C2FE31462046B84701E055
:10368C004FF002052846F8BD785D0008985D0008EB
:10369C0034000020C45D0008F05D000800230374B2
:1036AC00704741617047000010B504460021FCF7DB
:1036BC00E7FE054B03F1080222603433E36000237C
:1036CC0023746361204610BD205E000808B50368B2
:1036DC009B68984708BD000008B5064B1B6813B9DA
:1036EC00044B186008BD044B044A0D210448FEF736
:1036FC002DFB00BF54020020645E0008705E0008C1
:10370C00845E000808B5084B1B6813F0010F01D04C
:10371C00064808BD0548FFF7C7FF034B01221A6096
:10372C00034800F005F9F3E7480200205802002096
:10373C003D38000808B5084B1B6813F0010F01D089
:10374C00064808BD0548FFF70FFA034B01221A6023
:10375C00034800F0EDF8F3E74C0200207002002063
:10376C004D38000808B5084B1B6813F0010F01D049
:10377C00064808BD0548FFF741F9034B01221A60C2
:10378C00034800F0D5F8F3E7500200207C0200203B
:10379C005D38000810B584B0FFF7D4F9FFF7CAFF05
:1037AC00FFF7ECF9FFF7AEFFFFF778FFFFF7DAFF53
:1037BC0003681B699847FFF7A5FF0446FFF7BAFF9C
:1037CC0001462046FFF76DFFFFF7B4FF0446FFF7F5
:1037DC0099FF014600B10C312046FFF7D8F9FFF7ED
:1037EC00C1FFFFF749F9FFF7BDFF022316220E496F
:1037FC00FFF757F9FFF7B6FF01230093242301933A
:10380C0052220292039302AA6946FFF77FF9FFF74F
:10381C00A9FF052322220549FFF743F9FFF772FFA1
:10382C00FFF754FF04B010BD985E0008A05E0008BE
:10383C0008B50248FFF74AFE08BD00BF5802002039
:10384C0008B50248FFF786F908BD00BF70020020DA
:10385C0008B50248FFF7B2F808BD00BF7C02002093
:10386C0000B583B001A8FFF737FF0A20FCF766FD0F
:10387C0001A8FFF78FFFFCF76DFD002003B05DF88A
:10388C0004FB00F069B8FFF7FCBF012838BF01202A
:10389C0010B50446204600F057F830B900F040F857
:1038AC0008B9FEF7C9F98047F4E710BDFFF7EDBF83
:1038BC004B68016043604B68186048607047D0E902
:1038CC00003213605A60704708B5FEF7B5F908B5B9
:1038DC00FEF7B2F908B5FEF7AFF9000008B50B68B2
:1038EC00B3F1804F02D30D48FFF7F4FF93420BD98D
:1038FC00B3EB420F4FEA420006D2B0F1804F2ABF21
:10390C006FF0404308600B600868013001D5FFF789
:10391C00DBFFBDE80840FFF7B8BF00BFA45E00089E
:10392C00024B1868BFF35B8F704700BF8404002004
:10393C00002301461A46184600F068BA014B186875
:10394C00704700BF38000020024B0146186800F099
:10395C0095B800BF38000020024B0146186800F0F3
:10396C0041B800BF38000020034610B5C9B202446C
:10397C009342184601D1002003E0047801338C42B5
:10398C00F6D110BD0A44914200F1FF3300D17047CB
:10399C0010B511F8014B914203F8014FF9D110BD4C
:1039AC00884210B501EB020402D98442234607D8A1
:1039BC00431EA14208D011F8012B03F8012FF8E7A0
:1039CC00014602448A4200D110BD13F8014D02F8A1
:1039DC00014DF7E703460244934200D1704703F8C8
:1039EC00011BF9E738B50546002943D051F8043CD2
:1039FC000C1F002BB8BFE41800F08CFC1E4A136897
:103A0C00104633B9636014602846BDE8384000F0B6
:103A1C0087BCA3420AD921686218934201BF1A6875
:103A2C005B685218226063600460EDE71A465B68BD
:103A3C000BB1A342FAD911685018A0420BD12068DF
:103A4C000144501883421160DED118685B68014450
:103A5C0011605360D8E702D90C232B60D4E720689F
:103A6C0021188B4201BF19685B68091821606360DB
:103A7C005460C9E738BD00BF88040020F8B5CD1CE0
:103A8C0025F0030508350C2D38BF0C25002D0646F6
:103A9C0001DBA94203D90C2333600020F8BD00F0F0
:103AAC0039FC21490A6814469CB9204F3B6823B95C
:103ABC002146304600F0B2F838602946304600F016
:103ACC00ADF8431C23D10C233046336000F028FCA6
:103ADC00E3E723685B1B17D40B2B03D923601C442F
:103AEC00256004E06368A2420CBF0B605360304653
:103AFC0000F016FC04F10B00231D20F00700C21A85
:103B0C00CCD01B1AA350C9E722466468CCE7C41C6E
:103B1C0024F00304A042E3D0211A304600F07EF8D2
:103B2C000130DDD1CFE700BF880400208C040020D9
:103B3C0070B50E46054618B183690BB900F0E4FA6E
:103B4C00AB69AC6813B9284600F0DEFA2C4B9C42EA
:103B5C0020D16C68636EDB0705D4A389980502D469
:103B6C00A06D00F06FFBA38919071DD52369DBB18C
:103B7C00013EA36816F8011F013BA36039BB002B63
:103B8C0038DA22460A21284600F080F8013011D09C
:103B9C000A2511E01B4B9C4201D1AC68DAE71A4BA9
:103BAC009C4208BFEC68D5E72146284600F0C0F8D7
:103BBC000028DDD04FF0FF35636EDA0705D4A389FA
:103BCC009B0502D4A06D00F03FFB284670BD002B76
:103BDC0004DAA2699A4206DC0A2904D023685A1C2A
:103BEC0022601970C5E72246284600F04FF80130D4
:103BFC00BFD1DFE70A2523685A1C22601D70DBE762
:103C0C00E05E0008005F0008C05E0008024B014641
:103C1C001868FFF78DBF00BF3800002038B50023AF
:103C2C00054D044608462B60FEF710F8431C02D1E4
:103C3C002B6803B1236038BD20050020034613F820
:103C4C00012B002AFBD1181A0138704700B59BB024
:103C5C00009104916FF00041059102910549039187
:103C6C00694600F0BFFB0022009B1A701BB05DF888
:103C7C0004FB00BF0802FFFF13460A460146024838
:103C8C000068FFF7E3BF00BF38000020F8B50E4610
:103C9C001446054618B183690BB900F035FA214B6F
:103CAC009C422BD16C68A369A360A3891A072FD5FA
:103CBC0023696BB323692068F6B2C01A636937466F
:103CCC00834204DC2146284600F08AF930BBA36805
:103CDC000130013BA36023685A1C22601E7063698B
:103CEC00834204D0A389DB0706D50A2E04D12146D2
:103CFC00284600F075F988B93846F8BD0A4B9C4245
:103D0C0001D1AC68CFE7094B9C4208BFEC68CAE70D
:103D1C002146284600F00CF80028CBD04FF0FF3796
:103D2C00EAE700BFE05E0008005F0008C05E000824
:103D3C00324B70B51D6806460C4625B1AB6913B9FC
:103D4C00284600F0E1F92E4B9C420FD16C68A389F8
:103D5C00B4F90C2019072CD4DD0611D409233360D7
:103D6C0042F040034FF0FF30A3813EE0254B9C42D4
:103D7C0001D1AC68EBE7244B9C4208BFEC68E6E74A
:103D8C00580712D5616B41B104F14403994202D03A
:103D9C003046FFF727FE00236363A38923F0240337
:103DAC00A3810023636023692360A38943F0080384
:103DBC00A38123694BB9A38903F42073B3F5007F66
:103DCC0003D02146304600F065FAA089B4F90C20E6
:103DDC0010F001030AD00023A36063695B42A36166
:103DEC00236943B910F08000BAD170BD810758BF68
:103DFC006369A360F4E70020F7E700BF38000020F8
:103E0C00E05E0008005F0008C05E00082DE9F84382
:103E1C00DFF8BC800646D8F800001F460D469146D8
:103E2C0000F010FA264B1C6834B9264C1C60264B4B
:103E3C0013B11B68C4F8883063681F2B07DDD8F8F2
:103E4C00000000F001FA4FF0FF30BDE8F8835EB3DC
:103E5C00D4F8880088B91D4B23B9D8F8000000F0BD
:103E6C00F2F9F0E74FF48470FFF76EFD0028F4D000
:103E7C000023C0E94033C4F8880001226368022E95
:103E8C0040F8239002FA03F200EB8301D0F80031E2
:103E9C0043EA0203C0F80031C1F8807002BFD0F8C9
:103EAC0004311A43C0F804216368D8F800005A1C86
:103EBC000233626044F8235000F0C6F90020C4E7D6
:103ECC001C0500209004002000000000553900085B
:103EDC009C0000208A892DE9F041054610070C460C
:103EEC0058D44B68002B05DC0B6C002B02DC00203B
:103EFC00BDE8F081E66A002EF9D0002312F480525E
:103F0C002F682B6032D0606DA3895A0705D5636882
:103F1C00C01A636B0BB1236CC01A00230246E66A0D
:103F2C002846216AB047431CA38906D129681D295C
:103F3C002CD82A4ACA40D60728D5002262602269AA
:103F4C00D904226004D5421C01D12B6803B96065E9
:103F5C00616B2F600029CAD004F14403994202D04E
:103F6C002846FFF73FFD00206063C1E7216A01236B
:103F7C002846B047411CC7D12B68002BC4D01D2B41
:103F8C0001D0162B01D12F60B1E7A38943F0400378
:103F9C00A381ADE70F69002FA9D0930718BF0023A9
:103FAC000E6808BF4B69A6EB07080F608B60B8F171
:103FBC00000F9CDD43463A462846216AA66AB04764
:103FCC00002806DCA3894FF0FF3043F04003A381A7
:103FDC008EE70744A8EB0008E9E700BF010040208A
:103FEC0038B50B6905460C4613B90025284638BD73
:103FFC0018B183690BB900F087F8144B9C421BD1A4
:10400C006C68B4F90C30002BEFD0626ED00704D47E
:10401C00990502D4A06D00F015F928462146FFF74A
:10402C0059FF636E0546DA07E0D4A3899B05DDD4FE
:10403C00A06D00F009F9D9E7054B9C4201D1AC68A1
:10404C00DFE7044B9C4208BFEC68DAE7E05E00084F
:10405C00005F0008C05E0008002310B50446C0E9EC
:10406C000033C0E90433836081814366C28183617C
:10407C00194608225C30FFF7ADFC054B24626362E5
:10408C00044BA362044BE362044B236310BD00BFDB
:10409C001D4900083F490008774900089B49000862
:1040AC00014900F0AFB800BFED3F000870B56825BE
:1040BC004A1E55430E4605F17401FFF7DFFC04461A
:1040CC0040B10021C0E900160C30A06005F1680277
:1040DC00FFF780FC204670BD014800F0B3B800BF6C
:1040EC002C050020014800F0AFB800BF2C050020C3
:1040FC00014800F0A7B800BF27050020014800F0D8
:10410C00A3B800BF2705002010B50446FFF7F0FF49
:10411C00A3691BB1BDE81040FFF7F0BFC4E912332F
:10412C002365134B134A1B68A262A34208BF0123E9
:10413C00204608BFA36100F01FF86060204600F025
:10414C001BF8A060204600F017F800220421E06064
:10415C006068FFF781FF01220921A068FFF77CFF4F
:10416C0002221221E068FFF777FF0123A361D1E758
:10417C00BC5E0008AD400008F8B50746FFF7ACFF81
:10418C001E4B1E68B36913B93046FFF7BDFF4836A6
:10419C00D6E90134013B03D533680BB33668F7E736
:1041AC00B4F90C50D5B9164B04F15800E3606566B0
:1041BC0000F047F8FFF796FF08222946C4E901559D
:1041CC00C4E904552560A56104F15C00FFF702FC0D
:1041DC00C4E90D55C4E912552046F8BD6834D9E739
:1041EC0004213846FFF762FF044630600028D5D121
:1041FC00FFF778FF0C233B60EEE700BFBC5E0008C6
:10420C000100FFFF2DE9F84306468846002700F120
:10421C004804D4E90195B9F1010905D52468002CAD
:10422C00F7D13846BDE8F883AB89012B07D9B5F92E
:10423C000E30013303D029463046C047074368355A
:10424C00E9E7704770477047704770B50E46B1F993
:10425C000E10144600291D4696B007DA00232B6079
:10426C00B3891A0610D44FF480630EE06A4600F04E
:10427C00B5FB0028F2DB019A02F47042A2F5005360
:10428C005A425A412A60EEE740230020236016B0C0
:10429C0070BD00008B8973B59D0706460C4607D58B
:1042AC0004F14703236023610123636102B070BDF5
:1042BC006A4601ABFFF7C9FF009905463046FFF788
:1042CC00DDFB48B9B4F90C309A05EFD423F00303A5
:1042DC0043F00203A381E3E70D4BB362A389206093
:1042EC0043F08003A381009B20616361019B5BB160
:1042FC003046B4F90E1000F083FB28B1A38923F0EB
:10430C00030343F00103A381A0890543A581CDE7F5
:10431C00AD4000080148FFF795BF00BF28050020FD
:10432C000148FFF791BF00BF280500202DE9F04799
:10433C008E6882469E420C4690461F4638D88A8923
:10434C0012F4906F32D0256809690133A5EB01098D
:10435C0065694B4405EB450505EBD5756D109D4224
:10436C0038BF1D46530531D52946FFF787FB064656
:10437C0050B90C234FF0FF30CAF80030A38943F03A
:10438C004003A381BDE8F0874A462169FFF7FAFA9A
:10439C00A38923F4906343F08003A38126614E44E8
:1043AC0026603E466561A5EB0905A560BE4200D9B5
:1043BC003E46324641462068FFF7F2FAA36822686F
:1043CC009B1B32440020A3602260DBE72A4600F0EE
:1043DC0039FB06460028E1D150462169FFF702FB64
:1043EC00C7E700002DE9F04F98468B8907461B065E
:1043FC000D4614469DB00ED50B6963B94021FFF7ED
:10440C003DFB2860286120B90C233B604FF0FF3046
:10441C00D1E040236B610023099320238DF82930D0
:10442C0030234FF00109CDF80C80DFF8A4818DF812
:10443C002A3023469A4613F8012B0AB1252AF9D1C2
:10444C00BAEB040B0BD05B46224629463846FFF7E5
:10445C006DFF013000F0AA80099A5A4409929AF82B
:10446C000030002B00F0A28000234FF0FF32CDE98A
:10447C0005230AF1010A049307938DF853301A931C
:10448C005446052214F8011B5148FFF76DFA049AA3
:10449C00D8B9D00644BF20238DF85330110744BF40
:1044AC002B238DF853309AF800302A2B15D0544614
:1044BC0000204FF00A0C079A214611F8013B303BC3
:1044CC00092B4ED9B0B1079214E0A0EB080309FAFE
:1044DC0003F31343A2460493D2E7039B191D1B68F5
:1044EC000391002BBBBF5B4242F002020793079380
:1044FC00B8BF049223782E2B0CD163782A2B35D19C
:10450C00039B02341A1D1B680392002BB8BF4FF09B
:10451C00FF330593DFF8C8A0032250462178FFF73C
:10452C0023FA40B14023A0EB0A0003FA00F0049BED
:10453C0001340343049314F8011B062225488DF81B
:10454C002810FFF711FA002838D0234B1BBB039B14
:10455C00073323F0070308330393099B3344099370
:10456C0067E70C4601200CFB0232A5E700234FF055
:10457C000A0C194601340593204610F8012B303AE9
:10458C00092A03D9002BC5D00591C3E704460123A2
:10459C000CFB0121F0E703AB00932A4638460F4B86
:1045AC0004A9AFF30080421C0646D6D1AB895B064A
:1045BC003FF52CAF09981DB0BDE8F08F03AB00930D
:1045CC002A463846054B04A900F07CF8EBE700BFFF
:1045DC00205F00082A5F0008000000003943000833
:1045EC00265F00082DE9F047164699468A680B6944
:1045FC0007469342B8BF1346336091F843200C46EC
:10460C00DDF820800AB1013333602368990642BF7C
:10461C00336802333360256815F0060506D104F1C2
:10462C00190AE36832689B1AAB4228DC94F84320E1
:10463C00131E226818BF012392062DD44946384612
:10464C0004F14302C047013020D02368E56803F031
:10465C000603042B18BF002532684FF00006A36830
:10466C0008BFAD1A226908BF25EAE5759342C4BF9D
:10467C009B1AED181A34B5421AD1002008E0012318
:10468C00524649463846C047013003D14FF0FF30FF
:10469C00BDE8F0870135C4E73020E11881F843000C
:1046AC005A1C94F845102244023382F84310C5E793
:1046BC000123224649463846C0470130E6D0013630
:1046CC00D9E700002DE9FF470C46277E9146782F4D
:1046DC0080469A460C9904F1430207D8622F0AD8F7
:1046EC00002F00F0D980582F00F0A48004F142066E
:1046FC0084F842703AE0A7F16303152BF6D801A0B9
:10470C0050F823F0694700087D470008F946000877
:10471C00F9460008F9460008F94600087D470008EC
:10472C00F9460008F9460008F9460008F946000861
:10473C008B480008AD4700086D480008F946000892
:10474C00F9460008AD480008F9460008AD470008D6
:10475C00F9460008F9460008754800080B6804F192
:10476C0042061A1D1B680A6084F842300123A4E03B
:10477C00256808682E0600F104030AD505680B604D
:10478C00002D03DA2D236D4284F843300A235E4852
:10479C0019E015F0400F05680B6018BF2DB2EFE75C
:1047AC000B682568181D0860280601D51D6802E0F5
:1047BC006906FBD51D886F2F0CBF08230A235248AE
:1047CC00002184F843106668002EA8BF2168A660FB
:1047DC00A4BF21F0040121600DB9002E4DD0164666
:1047EC00B5FBF3F103FB1157C75D06F8017D2F46AE
:1047FC00BB420D46F4D9082B0BD12368DF0708D533
:10480C00236961689942DEBF302306F8013C06F14A
:10481C00FF36921B22614B4621464046CDF800A044
:10482C0003AAFFF7DFFE01304CD14FF0FF3004B08C
:10483C00BDE8F087344884F845700E68236856F854
:10484C00045B1F060E6014D5D90744BF43F0200348
:10485C0023601DB9236823F0200323601023AFE7E6
:10486C00236843F0200323607823284884F84530DC
:10487C00E3E75E0648BFADB2E6E71646BBE70B685A
:10488C0026681D1D60690D6035061B6801D5186012
:10489C0002E07106FBD51880002316462361BAE7A7
:1048AC000B681A1D0A601E68002130466268FFF70B
:1048BC005BF808B1801B606063682361002384F897
:1048CC004330A8E73246494640462369D047013079
:1048DC00ABD023689B0713D4E068039B9842B8BF06
:1048EC001846A4E70123324649464046D0470130DA
:1048FC009BD00135E36803995B1AAB42F2DCEBE722
:10490C00002504F11906F5E7315F0008425F000845
:10491C0010B50C46B1F90E1000F0BAF80028ABBF78
:10492C00636DA3891B1823F48053ACBF6365A3810B
:10493C0010BD2DE9F0411F468B890546DB050C4661
:10494C00164605D502230022B1F90E1000F068F8C6
:10495C00A389324623F48053A38128463B46B4F9FD
:10496C000E10BDE8F04100F017B810B50C46B1F9C7
:10497C000E1000F055F8431CA38915BF606523F495
:10498C00805343F48053A38118BFA38110BDB1F9A8
:10499C000E1000F013B8000038B504460846114656
:1049AC000022054D2A601A46FDF7A2F9431C02D1DC
:1049BC002B6803B1236038BD2005002038B50023D7
:1049CC00054D044608462B60FDF76AF9431C02D1DD
:1049DC002B6803B1236038BD2005002038B50023B7
:1049EC00064D0446084611462B60FDF761F9431C41
:1049FC0002D12B6803B1236038BD00BF2005002015
:104A0C0038B50023054D044608462B60FDF758F9D0
:104A1C00431C02D12B6803B1236038BD2005002054
:104A2C0038B50446084611460022054D2A601A4640
:104A3C00FDF74DF9431C02D12B6803B1236038BD3F
:104A4C0020050020F8B5074614460E4621B911463C
:104A5C00BDE8F840FFF712B822B9FEF7C3FF2546B0
:104A6C002846F8BD00F026F8A0420FD22146384661
:104A7C00FFF704F805460028F2D031462246FEF72F
:104A8C0081FF31463846FEF7ADFFE9E73546E7E7EB
:104A9C0038B50446084611460022054D2A601A46D0
:104AAC00FDF71DF9431C02D12B6803B1236038BDFF
:104ABC002005002051F8043C181F002BBCBF0B58DC
:104ACC00C018704700000000000000001D03000823
:104ADC001F0300080000000000000000C9030008CC
:104AEC00CB0300080000000000000000F9030008E0
:104AFC00FB030008704576656E740000766972746D
:104B0C0075616C20766F69642058465265616374D8
:104B1C006976653A3A707573684576656E7428499E
:104B2C0058464576656E742A290000002F686F6D13
:104B3C00652F666162696F2F446F63756D656E7466
:104B4C00732F4769744875622F446573656D2F48E0
:104B5C00414C5F636C65616E2F7365726965732D73
:104B6C0068616C2F636F6D6D6F6E2F78662F786632
:104B7C0072656163746976652E6370700000000065
:104B8C007669727475616C204576656E74537461C8
:104B9C0074757320584652656163746976653A3A48
:104BAC0070726F63657373284958464576656E74E9
:104BBC002A2900005F7043757272656E74457665C4
:104BCC006E7400004958464576656E742A20584626
:104BDC0052656163746976653A3A676574437572B8
:104BEC0072656E744576656E74282920636F6E73DA
:104BFC007400000067657443757272656E74457657
:104C0C00656E7428292D3E6765744576656E7454FF
:104C1C007970652829203D3D204958464576656EBA
:104C2C00743A3A54696D656F75740000584654694E
:104C3C006D656F75742A2058465265616374697688
:104C4C00653A3A67657443757272656E7454696D32
:104C5C00656F75742829000000000000000000003A
:104C6C002904000835040008410400085D0400080C
:104C7C00B10400082B0400083104000863616E6E57
:104C8C006F7420637265617465207374643A3A645E
:104C9C0065717565206C6172676572207468616EF0
:104CAC00206D61785F73697A652829000000000027
:104CBC0000000000C9050008E10500080000000024
:104CCC0000000000FD0500081D06000800000000A3
:104CDC000000000011090008130900086920213D9B
:104CEC00205F74696D656F7574732E656E64282909
:104CFC0000000000766F696420584654696D656F3A
:104D0C0075744D616E616765723A3A616464546999
:104D1C006D656F757428584654696D656F75742A86
:104D2C00290000002F686F6D652F666162696F2F17
:104D3C00446F63756D656E74732F47697448756243
:104D4C002F446573656D2F48414C5F636C65616ED4
:104D5C002F7365726965732D68616C2F636F6D6D50
:104D6C006F6E2F78662F786674696D656F75746DCC
:104D7C00616E616765722E63707000000000000048
:104D8C0000000000F10B0008090C00082F686F6D83
:104D9C00652F666162696F2F446F63756D656E7404
:104DAC00732F4769744875622F446573656D2F487E
:104DBC00414C5F636C65616E2F7365726965732D11
:104DCC0068616C2F636F6D6D6F6E2F706C617466A4
:104DDC006F726D2F6F6C696D65782D73746D3332D6
:104DEC00663130332D73746B2F6D63752F73746D47
:104DFC003332663178782F73797374656D2F7372D3
:104E0C00632F73746D333266312D737464706572F5
:104E1C006970682F6D6973632E6300002F686F6D66
:104E2C00652F666162696F2F446F63756D656E7473
:104E3C00732F4769744875622F446573656D2F48ED
:104E4C00414C5F636C65616E2F7365726965732D80
:104E5C0068616C2F636F6D6D6F6E2F706C61746613
:104E6C006F726D2F6F6C696D65782D73746D333245
:104E7C00663130332D73746B2F6D63752F73746DB6
:104E8C003332663178782F73797374656D2F737242
:104E9C00632F73746D333266312D73746470657265
:104EAC006970682F73746D3332663130785F657852
:104EBC0074692E63000000002F686F6D652F6661AA
:104ECC0062696F2F446F63756D656E74732F4769DC
:104EDC00744875622F446573656D2F48414C5F6350
:104EEC006C65616E2F7365726965732D68616C2FCB
:104EFC00636F6D6D6F6E2F706C6174666F726D2F5A
:104F0C006F6C696D65782D73746D33326631303327
:104F1C002D73746B2F6D63752F73746D3332663113
:104F2C0078782F73797374656D2F7372632F737424
:104F3C006D333266312D7374647065726970682FCD
:104F4C0073746D3332663130785F6770696F2E63BE
:104F5C00000000002F686F6D652F666162696F2F0E
:104F6C00446F63756D656E74732F47697448756211
:104F7C002F446573656D2F48414C5F636C65616EA2
:104F8C002F7365726965732D68616C2F636F6D6D1E
:104F9C006F6E2F706C6174666F726D2F6F6C696DB4
:104FAC0065782D73746D3332663130332D73746BB9
:104FBC002F6D63752F73746D3332663178782F7360
:104FCC00797374656D2F7372632F73746D333266DE
:104FDC00312D7374647065726970682F73746D33DE
:104FEC0032663130785F7263632E63002F686F6DA9
:104FFC00652F666162696F2F446F63756D656E74A2
:10500C00732F4769744875622F446573656D2F481B
:10501C00414C5F636C65616E2F7365726965732DAE
:10502C0068616C2F636F6D6D6F6E2F706C61746641
:10503C006F726D2F6F6C696D65782D73746D333273
:10504C00663130332D73746B2F6D63752F73746DE4
:10505C003332663178782F73797374656D2F737270
:10506C00632F73746D333266312D73746470657293
:10507C006970682F73746D3332663130785F73707A
:10508C00692E63002F686F6D652F666162696F2FE3
:10509C00446F63756D656E74732F476974487562E0
:1050AC002F446573656D2F48414C5F636C65616E71
:1050BC002F7365726965732D68616C2F636F6D6DED
:1050CC006F6E2F706C6174666F726D2F6F6C696D83
:1050DC0065782D73746D3332663130332D73746B88
:1050EC002F6D63752F73746D3332663178782F732F
:1050FC00797374656D2F7372632F73746D333266AD
:10510C00312D7374647065726970682F73746D33AC
:10511C0032663130785F75736172742E63000000F3
:10512C0061626F727428292C2065786974696E67C6
:10513C002E2E2E002C2066756E6374696F6E3A20CD
:10514C0000000000617373657274696F6E20222514
:10515C007322206661696C65643A2066696C65200F
:10516C00222573222C206C696E65202564257325FD
:10517C00730000006173736572745F706172616DAE
:10518C002829206661696C65643A2066696C652023
:10519C00222573222C206C696E652025640000008A
:1051AC0066616C73650000005370693A3A5370691C
:1051BC0028696E74290000002F686F6D652F666179
:1051CC0062696F2F446F63756D656E74732F4769D9
:1051DC00744875622F446573656D2F48414C5F634D
:1051EC006C65616E2F7365726965732D68616C2FC8
:1051FC00636F6D6D6F6E2F706C6174666F726D2F57
:10520C006F6C696D65782D73746D33326631303324
:10521C002D73746B2F6D63752F73746D3332663110
:10522C0078782F68616C2F7370692E637070000032
:10523C007374617469632053706926205370693AE2
:10524C003A696E7374616E63652875696E74385F44
:10525C0074290000626F6F6C205370693A3A696E62
:10526C00697469616C697A65282900000000000086
:10527C0000000000751F00087D1F00087561727426
:10528C004E6272203C20554152545F434F554E5450
:10529C0000000000556172743A3A556172742875B9
:1052AC006E7369676E656420636861722900000023
:1052BC002F686F6D652F666162696F2F446F637520
:1052CC006D656E74732F4769744875622F446573EE
:1052DC00656D2F48414C5F636C65616E2F73657211
:1052EC006965732D68616C2F636F6D6D6F6E2F70B8
:1052FC006C6174666F726D2F6F6C696D65782D7350
:10530C00746D3332663130332D73746B2F6D63755E
:10531C002F73746D3332663178782F68616C2F750A
:10532C006172742E63707000626F6F6C20556172C5
:10533C00743A3A696E697469616C697A65286C6F44
:10534C006E6720756E7369676E656420696E74296B
:10535C0000000000000000000000000065210008B3
:10536C006721000800000000000000006523000811
:10537C006923000800000000000000008D240008D4
:10538C008F240008706F696E742E78203C2057694A
:10539C00647468007669727475616C20494D6F6E27
:1053AC006F6368726F6D65446973706C61793A3ABA
:1053BC00506978656C436F6C6F72204D6F6E6F63C4
:1053CC0068726F6D65446973706C61793A3A706993
:1053DC0078656C28636F6E737420506F696E7426D9
:1053EC00290000002F686F6D652F666162696F2F51
:1053FC00446F63756D656E74732F4769744875627D
:10540C002F446573656D2F48414C5F636C65616E0D
:10541C002F7365726965732D68616C2F636F6D6D89
:10542C006F6E2F706C6174666F726D2F6F6C696D1F
:10543C0065782D73746D3332663130332D73746B24
:10544C002F626F6172642F646973706C61792F6D58
:10545C006F6E6F6368726F6D65646973706C617980
:10546C002E63707000000000706F696E742E7920CE
:10547C003C204865696768740000000073746172B1
:10548C007441646472657373203D3D2030000000EC
:10549C007669727475616C20766F6964204D6F6EDD
:1054AC006F6368726F6D65446973706C61793A3AB9
:1054BC0072656164446973706C61794D656D6F726E
:1054CC00792873697A655F742C2075696E74385FFE
:1054DC00742A2C2073697A655F742900000000001F
:1054EC000000000000000000000000003D1C00084F
:1054FC003D1C00083D1C00083D1C00083D1C00081C
:10550C003D1C00083D1C0008192500081B2500083F
:10551C001D2500081F25000821250008232500084B
:10552C002525000827250008292500080000000073
:10553C00000000009D250008C52500082B2500084B
:10554C00DF250008812800083525000839250008CA
:10555C00012600083D250008F12500084129000816
:10556C00752600081F2500082125000823250008A2
:10557C00252500082725000829250008FCFFFFFF2A
:10558C0000000000BD250008D72500086261736982
:10559C00635F737472696E673A3A5F4D5F636F6EE7
:1055AC00737472756374206E756C6C206E6F7420DE
:1055BC0076616C69640000000000000000000000CF
:1055CC00C9290008ED2900082B250008DF25000853
:1055DC007D2A000835250008392500080126000819
:1055EC003D250008F1250008412900087526000812
:1055FC001F25000821250008232500082525000863
:10560C002725000829250008FCFFFFFF00000000EB
:10561C00E5290008FF290008000000000000000038
:10562C00632B0008612B0008672B00086C656E204B
:10563C003C2054524143455F4255464645525F53C8
:10564C00495A45202D2031007374617469632076AA
:10565C006F69642054726163653A3A5F7072696E67
:10566C007428636861722A2C20626F6F6C290000A9
:10567C002F686F6D652F666162696F2F446F63755C
:10568C006D656E74732F4769744875622F4465732A
:10569C00656D2F48414C5F636C65616E2F7365724D
:1056AC006965732D68616C2F636F6D6D6F6E2F70F4
:1056BC006C6174666F726D2F6F6C696D65782D738C
:1056CC00746D3332663130332D73746B2F626F61AE
:1056DC0072642F74726163652E6370700000000039
:1056EC006C656E203C2054524143455F4255464602
:1056FC0045525F53495A450000000000000000006D
:10570C002F000000000700070000147F147F140016
:10571C00242A7F2A1200231308646200364955227A
:10572C005000000503000000001C22410000004155
:10573C00221C000014083E08140008083E0808004B
:10574C0000005030000010101010100000606000BD
:10575C0000002010080402003E5149453E00004262
:10576C007F4000004261514946002141454B3100C8
:10577C001814127F10002745454539003C4A494909
:10578C0030000171090503003649494936000649C4
:10579C0049291E0000363600000000563600000075
:1057AC000814224100001414141414000041221493
:1057BC000800020151090600324959513E007E1180
:1057CC0011117E007F49494936003E41414122007A
:1057DC007F4141221C007F49494941007F09090949
:1057EC0001003E4149497A007F0808087F000041CA
:1057FC007F4100002040413F01007F0814224100FE
:10580C007F40404040007F020C027F007F04081064
:10581C007F003E4141413E007F09090906003E419F
:10582C0051215E007F09192946004649494931003A
:10583C0001017F0101003F4040403F001F204020FC
:10584C001F003F4038403F006314081463000708F2
:10585C0070080700615149454300007F4141000039
:10586C00552A552A55000041417F000004020102CF
:10587C00040040404040400000010204000020545D
:10588C00545478007F484444380038444444200041
:10589C00384444487F00385454541800087E090199
:1058AC0002000C5252523E007F080404780000445F
:1058BC007D4000002040443D00007F102844000043
:1058CC0000417F4000007C04180478007C0804042C
:1058DC0078003844444438007C141414080008142C
:1058EC0014187C007C08040408004854545420000C
:1058FC00043F444020003C4040207C001C204020C1
:10590C001C003C4030403C004428102844000C5003
:10591C0050503C004464544C4400083E414100004B
:10592C0000007F0000000041413E080010081020DC
:10593C00100000000000000000081C3E7F00607892
:10594C007E786000007F3E1C0800061E7E1E06004E
:10595C00000814227F00605846586000007F221413
:10596C000800061A621A06007E7E7E000000000007
:10597C0000000000205455567800205456557800ED
:10598C0020565556780020565556790020555455BA
:10599C0078002054545478002054545478003844DF
:1059AC0044442000385455561800385456551800A5
:1059BC0038565556180038555455180000447D4239
:1059CC00000000467D40000000467D42000000457E
:1059DC007C4100000000000000007C0A05067900F4
:1059EC003844454638003846454438003846454624
:1059FC0038003846454639003845444538000808D3
:105A0C002A0808007864544C3C003C4041227C003D
:105A1C003C4241227C003C4241207C003C414021E4
:105A2C007C000C5051523C000000000000000C5156
:105A3C0050513C000000000000000000000000007D
:105A4C00000000000000000000000000000000004A
:105A5C00000000000000000000060909060000001C
:105A6C005F646973706C617900000000766F696423
:105A7C00204D6F6E6F6368726F6D65446973706CE7
:105A8C0061795061696E7465723A3A6472617750EB
:105A9C006978656C28636F6E737420494D6F6E6FF7
:105AAC006368726F6D65446973706C61793A3A50D2
:105ABC006F696E74262C20494D6F6E6F6368726F20
:105ACC006D65446973706C61793A3A506978656CAC
