:020000040800F2
:1000000000500020F9020008FF0200080103000868
:1000100003030008050300080703000800000000B0
:1000200000000000000000000000000009030008BC
:100030000B030008000000000D030008F50B00088A
:100040001103000811030008110300081103000840
:100050001103000811030008110300081103000830
:100060001103000811030008110300081103000820
:100070001103000811030008110300081103000810
:100080001103000811030008110300081103000800
:10009000110300081103000811030008B9570008F4
:1000A00011030008110300081103000811030008E0
:1000B00099570008110300081103000811030008F4
:1000C00011030008110300081103000811030008C0
:1000D0001103000811030008195800081103000853
:1000E00011030008110300081103000811030008A0
:1000F0001103000811030008110300081103000890
:10010000110300081103000811030008110300087F
:10011000110300081103000811030008110300086F
:10012000110300081103000811030008110300085F
:1001300000000000000000000000000000000000BF
:1001400000000000000000000000000000000000AF
:10015000000000000000000000000000000000009F
:10016000000000000000000000000000000000008F
:10017000000000000000000000000000000000007F
:10018000000000000000000000000000000000006F
:10019000000000000000000000000000000000005F
:1001A000000000000000000000000000000000004F
:1001B000000000000000000000000000000000003F
:1001C000000000000000000000000000000000002F
:1001D000000000000000000000000000000000001F
:1001E0005FF8E0F100B583B002F06AFB304B314AB2
:1001F0001360314A1360314B314A03E052F8041B5B
:1002000043F8041B2F498B42F8D32A4B1A682E4B14
:100210009A4200D0FEE7284B1A682C4B9A42F9D13B
:10022000234B2B4A13602B4A13602B4B02E0002216
:1002300043F8042B294A9342F9D3254B1B6813B981
:10024000244B1B6803B1FEE702F03EFB694601A8A0
:1002500002F0AAFA224C234BE41AA410002504E071
:10026000204B53F8253098470135AC42F8DC1E4C42
:100270001E4BE41AA410002504E01C4B53F8253053
:1002800098470135AC42F8DC0099019807F05AF91B
:100290000546174C174BE41AA41004E0013C154B1B
:1002A00053F824309847002CF8DC284602F04FFA27
:1002B000BABADECA00000020A00000200000002022
:1002C000BCB30008A400002078563412325476984B
:1002D000A800002080080020A8000020840800203A
:1002E0001403000814030008800300081403000826
:1002F000EC0300088003000808B5FFF773FFFEE772
:10030000FEE7FEE7FEE7FEE7FEE7FEE7FEE77047F3
:04031000FEE7000004
:100314007D0400085D0A00081933000871350008DF
:1003240051360008A9390008453F0008354800083F
:10033400454F00083D500008A1520008DD53000855
:1003440079540008ED5600085D580008F958000873
:100354004D610008EF610008D56200089D65000842
:10036400396600089D690008796E0008896F0008E5
:1003740063710008597400086B7500088B04000849
:100384006B0A0008273300087F3500085F36000831
:10039400B7390008533F000843480008534F00088A
:1003A4004B500008AF520008EB5300088754000874
:1003B400FB5600086B580008075900085B610008E9
:1003C400FD610008E3620008AB65000847660008A9
:1003D400AB690008876E0008976F00087171000808
:0803E400677400087975000838
:1003EC00704710B5044607F0C8F8204610BD000051
:1003FC000122027100218160027B42F00102027332
:10040C000161014A026070477C88000810B50446FF
:10041C0000F054FB214600F065FB00F04FFB00F0B0
:10042C0091FB10BD08B5024800F0E0F908BD00BF13
:10043C00AC00002000487047AC00002038B50446E2
:10044C000D46012805D01CB94FF6FF739D4208D00C
:10045C0038BD4FF6FF739942F5D1044800F018FAF5
:10046C00F1E7024800F06AF9F2E700BFAC000020A7
:10047C0008B54FF6FF710120FFF7E0FF08BD08B586
:10048C004FF6FF710020FFF7D9FF08BD704710B57C
:10049C00044607F072F8204610BD000010B4032487
:1004AC0004718160017B41F0010101730261024A18
:1004BC00026010BC704700BF8C88000870474FF07A
:1004CC00000070474068704710B5044607F055F8B7
:1004DC00204610BD70B504460368DE68142007F092
:1004EC0050F80546FFF784FF29462046B04770BDFB
:1004FC0010B541B10C46086103689B6998472146C9
:10050C0000F092FA10BD034B034A2021034802F07D
:10051C00A3F900BF948800089C880008CC880008C8
:10052C0010B50446054B0360084621B160600023FA
:10053C00A360204610BDFFF77DFFF7E7FC8900089C
:10054C008160704738B569B10446FFF7F9FF23683D
:10055C005B6920469847054600212046FFF7F0FFCF
:10056C00284638BD024B034A3621034802F074F981
:10057C00948800081C890008CC880008806800B1A9
:10058C00704708B5024B034A5A21034802F064F93C
:10059C005089000860890008CC88000808B5FFF76E
:1005AC00EDFF90F90430042B00D108BD024B034A37
:1005BC006421034802F050F990890008C8890008AA
:1005CC00CC880008704710B5044606F0D6FF2046CC
:1005DC0010BD000010B40324047181600261044A50
:1005EC000260027B6FF30002027310BC704700BF05
:1005FC00208A0008704710B5044606F0BEFF20465E
:10060C0010BD0000012800D070474FF6FF739942CF
:10061C00FAD100B589B0174B1B68049304AB029355
:10062C00042303936B460421029883E80300124BC6
:10063C00124A1A6001460422A2B90E4B5B6807935A
:10064C0007AB0593042306936B460421059883E8B6
:10065C0003000B4B094A1A600146042232B909B057
:10066C005DF804FB181D07F019F8E6E7181D07F0F4
:10067C0015F8F4E7788A0008E8000020708A000872
:10068C00E0000020C369C068984214BF002001201C
:10069C00704708B500F012FA08BD10B50C46086991
:1006AC0003681B699847C0B2042800D010BD2069AC
:1006BC000028FBD003685B689847F7E770B50C46D9
:1006CC0015461E46FFF7E5FF33462A46214600F045
:1006DC000DFB70BD38B50C461546AC4204D254F82F
:1006EC00040B06F04AFFF8E738BD10B50446036862
:1006FC003BB1426A04324169FFF7ECFF206806F017
:10070C003CFF204610BD000010B50446034B40F8DA
:10071C00043BFFF7EAFF204610BD00BF608A0008CB
:10072C0010B50446044B40F8043BFFF7DEFF2046AF
:10073C0006F023FF204610BD608A000810B5044661
:10074C00044B0360044B83600C30FFF7CEFF204654
:10075C0010BD00BF888A0008608A000810B50446E6
:10076C00FFF7ECFF204606F008FF204610BD10B541
:10077C000446C06806F001FF63691A1D62615B687C
:10078C00E36003F500722261A36010BD38B5044626
:10079C00237953B304F10800FFF774FF0028F9D153
:1007AC0063691D6804F10C00E269043A9A4216D0A0
:1007BC00043363611DB129462046FFF76EFF95F99E
:1007CC000430B3F1FF3F0DD02B7B13F0010FDFD0C2
:1007DC00002DDDD02B685B6828469847D8E7FFF7DB
:1007EC00C6FFE7E700232371EEE738BD08B5FFF736
:1007FC00CDFF08BD38B50C461546AC4206D24FF4B9
:10080C00007006F0BEFE44F8040BF6E738BD2DE987
:10081C00F04383B004460D46CB095E1C08220092BF
:10082C000333019393422FD86B4618686060B0F184
:10083C00005F2BD2800006F0A4FE80462060676823
:10084C00BF1B7F0800EB870909EB86063246494639
:10085C002046FFF7CFFFC4F8149058F82720E26029
:10086C0002F500732361331F636256F8043CE361A5
:10087C0003F500712162A26005F07F0503EB85038F
:10088C00A36103B0BDE8F08301ABCEE706F098FEA0
:10089C0010B504460A4B0360012303710021C160AB
:1008AC00016141618161C161016241628162C16228
:1008BC0001630C30FFF7ABFF024BA360204610BD69
:1008CC00888A0008608A00082DE9F04782B0064645
:1008DC0001919046426A4069171ABD1001350D44CA
:1008EC007368B3EB450F22D9D6F800C05C1B6408C3
:1008FC00A400B8F1000F01D0890000E000210C44E5
:10090C006444A04208D9131D1A1A984239D00146E2
:10091C00204606F0C3FE34E0131D3A1DA5181A1A22
:10092C0098422ED00146A81A06F0B8FE29E0321DD6
:10093C00994236D81268134403F10209B9F1005FE9
:10094C0031D24FEA890006F01CFE8246A9EB050461
:10095C006408A400B8F1000F27D0019DAD002C4411
:10096C0054447169736A04335A1A994202D020466E
:10097C0006F094FE306806F000FEC6F800A0C6F83B
:10098C00049074612368F36003F500733361E31919
:10099C007362E359F36103F50073336202B0BDE88F
:1009AC00F08701AAC6E706F00BFE0025D7E700008A
:1009BC0070B50D46436A42699B1A9B105A1E836997
:1009CC00C1695B1A9B1003EBC21302698168521A4E
:1009DC0003EBA2036FF0604293421BD004464368C2
:1009EC00426A0168521AA3EBA203012B15D9666A5D
:1009FC004FF4007006F0C5FD7060A3692A681A6098
:100A0C00636A1A1D62625B68E36103F5007222621D
:100A1C00A36170BD034806F0D9FD00220121FFF748
:100A2C0053FFE4E7288A000800B583B001910C302D
:100A3C008269036A043B9A4206D0116083690433CD
:100A4C00836103B05DF804FB01A9FFF7B1FFF8E780
:100A5C0008B54FF6FF710120FFF7D4FD08BD08B5AE
:100A6C004FF6FF710020FFF7CDFD08BD704710B5A4
:100A7C00044606F082FD204610BD000030B404256B
:100A8C0005718160017B41F0010101730361034B2E
:100A9C0003604261826130BC704700BF988A0008D5
:100AAC00054A02600022426000F10801C1608160C9
:100ABC0002614261704700BF448B0008084B1B6801
:100ACC0013B1074B1868704710B5182006F059FD84
:100ADC000446FFF7E5FF024B1C60014B186810BD84
:100AEC00F00000204160704708B508690368DB68B6
:100AFC00984708BD10B50C4601F072FF0D4B1B68F2
:100B0C0003FB04F30C49A1FB03239B09013BB3F149
:100B1C00807F09D2094A5360094BF02183F82310D6
:100B2C000023936007231360054B002283F82320D6
:100B3C0010BD00BF30000020D34D621010E000E06B
:100B4C0000ED00E008B543680BB90A234360416827
:100B5C00FFF7D0FF08BD38B50C460D688368013B24
:100B6C008360084606F027FD204606F006FD284661
:100B7C0038BDF8B54268436913444361054655F8DE
:100B8C00083F9D4206D0044699688B699B1A8B617D
:100B9C00002B00DDF8BD0269012A05D982681268B4
:100BAC0090688269D31A83612046FFF79DFF04F198
:100BBC000807A668BB68013BBB60304606F0FBFC2F
:100BCC00304606F0DAFCA06806E02046FFF78CFF02
:100BDC0031463846FFF7BFFF06468542DAD08168BA
:100BEC008B69002BF1D0D5E710B5054C0123237090
:100BFC00FFF764FFFFF7BDFF0023237010BD00BF9C
:100C0C005D010020F8B505460E4617460C2006F08F
:100C1C00B8FC04463B688360314606F0C5FCAB6803
:100C2C000133AB602046F8BDF0B583B006460191A8
:100C3C0002F0A6FC354655F8084FA54244D0A368EF
:100C4C009A69019FBB699A4210DA9B1ABB612068B2
:100C5C000124014685421BD083689A69BB699A427C
:100C6C0016DA9B1ABB6100680134F2E70C2006F01F
:100C7C0088FC019B8360214606F096FCAB6801332F
:100C8C00AB60A268019B996993695B1A936111E04F
:100C9C0001AA06F10800FFF7B5FF336901349C4245
:100CAC0008D203689D4209D09A68019B996993699F
:100CBC005B1A936102F076FC03B0F0BD084B094A55
:100CCC00BA21094801F0C8FD0C2006F05AFC019B22
:100CDC008360214606F068FC336901333361E9E730
:100CEC00A08A0008B88A0008E88A00082DE9F041BB
:100CFC0080460D4616461F461C2006F042FC044654
:100D0C003B4632462946FFF7B9FE1CB12146404608
:100D1C00FFF78AFFBDE8F08138B5054600688542CB
:100D2C0004D0046806F029FC2046F8E738BD000022
:100D3C0010B50446034B40F8083BFFF7EDFF204687
:100D4C0010BD00BF448B000810B50446FFF7F0FF40
:100D5C00204606F012FC204610BD38B50446057B33
:100D6C00022D1CD00AD8012D1FD8FFF707FC90F9D3
:100D7C000430012B19D10223237316E0032D14D157
:100D8C00FFF7FCFB90F90430042B0ED12046FFF743
:100D9C0005FC8368012B08D10223237305E0FFF7C0
:100DAC00EDFB90F90430032B09D0237BAB4203D02D
:100DBC00022B0DD0032B11D04FF0010038BD204673
:100DCC00FFF7DCFB8368012BEFD103232373ECE7E4
:100DDC000022E189206904F0ABFBEDE723689B69F5
:100DEC0020469847234662690121FFF767FC0122E0
:100DFC00E189206904F09CFBDEE7000010B5044695
:100E0C00024B0360FFF75AFB204610BD548B0008C1
:100E1C0010B50446044B0360FFF750FB204606F068
:100E2C00ACFB204610BD00BF548B000870B50446C7
:100E3C000E4615460021FFF773FB054B236000237C
:100E4C002373E681256164236361204670BD00BF76
:100E5C00548B000808B5FFF73DFB08BD10B50446E0
:100E6C00B0F5E06F0BD0B0F5C06F08D0B0F5A06F47
:100E7C0005D0B0F5806F02D0B0F5407F06D144F0BC
:100E8C00BF6444F40034044BDC6010BD63210348A0
:100E9C0001F006FDF3E700BF00ED00E0708B0008E9
:100EAC0010B50446C378012B26D863780F2B28D8AD
:100EBC00A3780F2B2AD8E3786BB31C4BDA68D24398
:100ECC00C2F30222C2F104000F2323FA02F261786A
:100EDC008140A37813400B431B012278DBB21449E9
:100EEC000A4482F80033237803F01F005B090122C7
:100EFC00824041F8232010BD75210E4801F0D0FC32
:100F0C00D3E776210B4801F0CBFCD1E777210948D8
:100F1C0001F0C6FCCFE7237803F01F015B09012227
:100F2C008A402033024941F82320E4E700ED00E039
:100F3C0000E100E0708B000810B5044603790BB19A
:100F4C00042B3FD16379082B03D00C2B01D0102B31
:100F5C003DD12268130D1B0503B91AB96C212B481E
:100F6C0001F09EFCA379012B36D8A379002B42D03B
:100F7C00274B1A68216822EA01021A605A68216814
:100F8C0022EA01025A60227902F1804202F5823291
:100F9C0011682068014311609A68216822EA0102F5
:100FAC009A60DA68216822EA0102DA606379102B10
:100FBC0017D003F1804303F582331A6821680A4382
:100FCC001A6022E06A21114801F06AFCBAE76B2131
:100FDC000E4801F065FCBCE76D210C4801F060FC8B
:100FEC00C3E70B4B9A6821680A439A60DA68216858
:100FFC000A43DA6009E0237903F1804303F5823375
:10100C001A68216822EA01021A6010BD048C0008DB
:10101C000004014010B50446431E012B2FD90428AF
:10102C002DD008282BD0102829D0202827D04028B4
:10103C0025D0802823D0B0F5807F20D0B0F5007F5C
:10104C001DD0B0F5806F1AD0B0F5006F17D0B0F589
:10105C00805F14D0B0F5005F11D0B0F5804F0ED08A
:10106C00B0F5004F0BD0B0F5803F08D0B0F5003F85
:10107C0005D0B0F5802F02D0B0F5002F08D1094A69
:10108C00136823405269224207D043B9002005E07F
:10109C00E521054801F004FCF1E7002010BD01201A
:1010AC00FCE700BF00040140048C000810B50446A6
:1010BC00030D1B0503B918B9FC21034801F0F0FB23
:1010CC00024B5C6110BD00BF048C000800040140A1
:1010DC00F8B505460C46494B98421BD003F5806386
:1010EC00984217D003F58063984213D003F58063C0
:1010FC0098420FD003F5806398420BD003F58063C0
:10110C00984207D003F58063984203D0B2213C4843
:10111C0001F0C6FBE3786BB1042B0BD0282B09D064
:10112C00482B07D0142B05D0102B03D01C2B01D02F
:10113C00182B14D12388BBB1E37803F00F0630468B
:10114C0013F0100F06D0A378013BDBB2022B10D8A2
:10115C00A078304323785BB32E68002310E0B321D2
:10116C00274801F09DFBE5E7B421254801F098FBE9
:10117C00E2E7BB21224801F093FBE9E76A61013306
:10118C00072B14D801229A40218832EA0101F6D1AA
:10119C0099000F278F4026EA070600FA01F10E434B
:1011AC00E1782829EAD04829E9D12A61E7E72E60BD
:1011BC002388FF2B20D96E68002302E06A6115E0BA
:1011CC000133072B17D803F1080101228A4021882B
:1011DC0032EA0101F4D199000F278F4026EA070665
:1011EC0000FA01F10E43E1782829E7D0E17848298B
:1011FC00E6D12A61E4E76E60F8BD00BF000801404B
:10120C00A48C000838B504460D462A4B98421CD0D5
:10121C0003F58063984218D003F58063984214D08C
:10122C0003F58063984210D003F5806398420CD08C
:10123C0003F58063984208D003F58063984204D08C
:10124C004FF48F711C4801F02BFB6B1E9BB2012BD2
:10125C0023D9042D21D0082D1FD0102D1DD0202DC9
:10126C001BD0402D19D0802D17D0B5F5807F14D010
:10127C00B5F5007F11D0B5F5806F0ED0B5F5006FC8
:10128C000BD0B5F5805F08D0B5F5005F05D0B5F58E
:10129C00804F02D0B5F5004F04D1A3681D4207D092
:1012AC00012038BD40F21F11034801F0F9FAF4E7B0
:1012BC000020F6E700080140A48C000870B5044635
:1012CC000D4616462D4B98421CD003F58063984270
:1012DC0018D003F58063984214D003F580639842CC
:1012EC0010D003F5806398420CD003F580639842CC
:1012FC0008D003F58063984204D040F28D11204849
:10130C0001F0CEFA6B1E9BB2012B23D9042D21D0F8
:10131C00082D1FD0102D1DD0202D1BD0402D19D0E5
:10132C00802D17D0B5F5807F14D0B5F5007F11D086
:10133C00B5F5806F0ED0B5F5006F0BD0B5F5805FAD
:10134C0008D0B5F5005F05D0B5F5804F02D0B5F5E6
:10135C00004F04D1012E08D86EB1256170BD4FF439
:10136C00C771074801F09CFAF4E740F28F1104486A
:10137C0001F096FAF0E76561F0E700BF0008014064
:10138C00A48C000870B505460C46062817D80F2CFF
:10139C001BD804F0030080000F2202FA00F6A1080B
:1013AC000D4B023153F8212022EA060243F821208A
:1013BC0053F821208540154343F8215070BD40F26D
:1013CC006521064801F06CFAE1E740F2662103481A
:1013DC0001F066FADDE700BF00000140A48C0008B4
:1013EC0010B4294B5B6803F00C03042B2BD0082B97
:1013FC002CD013B1254B036001E0244B0360224930
:10140C004B68C3F30313224CE35CDAB20368D3409A
:10141C0043604A68C2F30222A25CD2B223FA02F2FF
:10142C0082604A68C2F3C222A25CD2B2D340C360CB
:10143C004A68C2F3813217498A5CD2B2B3FBF2F329
:10144C00036110BC7047114B0360D8E70E4A536818
:10145C005268C3F38343023312F4803F04D10E4A23
:10146C0002FB03F30360CAE7074A526812F4003F19
:10147C0004D0094A02FB03F30360C0E7034A02FBF2
:10148C0003F30360BBE700BF0010024000127A00B8
:10149C00080000200400002000093D0038B5044677
:1014AC000D460E4B034003B920B940F24A410C489B
:1014BC0001F0F6F9012D05D855B10A4B9869044392
:1014CC009C6138BD40F24B41054801F0E9F9F3E766
:1014DC00044B986920EA04049C61F2E70200C0FF07
:1014EC00448D00080010024038B504460D460E4BE2
:1014FC00184200D120B940F269410C4801F0D0F9F2
:10150C00012D05D855B10A4BD8690443DC6138BDAF
:10151C0040F26A41054801F0C3F9F3E7044BD8697E
:10152C0020EA0404DC61F2E700360181448D0008F6
:10153C000010024038B504460D460E4B034003B96B
:10154C0020B940F2A4410C4801F0AAF9012D05D8AC
:10155C0055B10A4BD8680443DC6038BD40F2A54154
:10156C00054801F09DF9F3E7044BD86820EA040420
:10157C00DC60F2E70200C0FF448D0008001002405E
:10158C0038B504460D460E4B184200D120B940F236
:10159C00C3410C4801F084F9012D05D855B10A4B13
:1015AC00186904431C6138BD40F2C441054801F080
:1015BC0077F9F3E7044B186920EA04041C61F2E79D
:1015CC0000360181448D00080010024010B504461D
:1015DC001C4B98420BD0A3F57843984207D003F5E7
:1015EC008063984203D07A21174801F059F9154BC2
:1015FC009C4206D0154B9C420ED0154B9C4216D0EB
:10160C0010BD01214FF48050FFF794FF00214FF4DF
:10161C008050FFF78FFFF3E701214FF48040FFF775
:10162C00AFFF00214FF48040FFF7AAFFE8E701214C
:10163C004FF40040FFF7A4FF00214FF40040FFF7E8
:10164C009FFFDDE700300140E08D000800380040CE
:10165C00003C00402DE9F04105460C464D4B9842AC
:10166C000BD0A3F57843984207D003F580639842DA
:10167C0003D0A321484801F013F9238843B1B3F5F3
:10168C00806F05D0B3F5004F02D0B3F5404F53D166
:10169C006388B3F5827F01D0002B52D1A388B3F5B8
:1016AC00006F01D0002B51D1E3880BB1022B52D12A
:1016BC002389012B54D86389B3F5007F01D0002B0B
:1016CC0053D1A3896BB1082B0BD0102B09D0182B3D
:1016DC0007D0202B05D0282B03D0302B01D0382B52
:1016EC0048D1E3890BB1802B49D1238A002B4BD0F5
:1016FC002B8803F44152B4F800E0B4F80280B4F83B
:10170C0004C0E78826896089A189E3894EEA080E1E
:10171C004CEA0E0C47EA0C073E43304301430B43A3
:10172C0013432B80AB8B9BB223F400639BB2AB8334
:10173C00238A2B82BDE8F081A621174801F0B0F86E
:10174C00A6E7A721144801F0ABF8A7E7A821124897
:10175C0001F0A6F8A8E7A9210F4801F0A1F8A7E726
:10176C00AA210D4801F09CF8A5E7AB210A4801F02D
:10177C0097F8A6E7AC21084801F092F8B1E7AD2143
:10178C00054801F08DF8B0E7AE21034801F088F868
:10179C00AEE700BF00300140E08D000838B50446CC
:1017AC000D46134B98420CD0A3F57843984208D0C1
:1017BC0003F58063984204D040F2B7110D4801F054
:1017CC006FF8012D06D85DB123889BB243F040031E
:1017DC00238038BD4FF4DC71064801F061F8F2E764
:1017EC0023889BB223F040039BB22380F1E700BF18
:1017FC0000300140E08D000838B504460D46094B19
:10180C0098420CD0A3F57843984208D003F5806336
:10181C00984204D040F23A21034801F041F8A581E6
:10182C0038BD00BF00300140E08D000810B5044603
:10183C00094B98420CD0A3F57843984208D003F595
:10184C008063984204D040F24A21044801F028F801
:10185C00A08980B210BD00BF00300140E08D0008AF
:10186C0038B505460C46164B98420CD0A3F5784378
:10187C00984208D003F58063984204D040F21631A8
:10188C00104801F00DF8802C0DD0402C0BD0202CE2
:10189C0009D0102C07D0082C05D0042C03D0022C16
:1018AC0001D0012C04D12B891C4207D0012038BD5A
:1018BC0040F21731034800F0F3FFF4E70020F6E79D
:1018CC0000300140E08D000810B50446944B98425E
:1018DC0042D0B0F1804F3FD0A3F5943398423BD027
:1018EC0003F58063984237D003F58063984233D078
:1018FC0003F5806398422FD003F5806398422BD078
:10190C0003F59033984227D003F5C053984223D067
:10191C0003F5806398421FD003F5806398421BD077
:10192C00A3F59E33984217D003F58063984213D0E9
:10193C0003F5806398420FD003F5903398420BD097
:10194C0003F58063984207D003F58063984203D077
:10195C007D21744800F0A4FF714B9C4240D0B4F13F
:10196C00804F48D0704B9C424ED0704B9C4254D010
:10197C006F4B9C425AD06F4B9C4260D06E4B9C423A
:10198C0066D06E4B9C426CD06D4B9C4274D06D4BB0
:10199C009C427CD06C4B9C4200F084806B4B9C42F4
:1019AC0000F08B806A4B9C4200F09080694B9C420B
:1019BC0000F09580684B9C4200F09C80674B9C42E9
:1019CC0000F0A380664B9C4214D101214FF480207F
:1019DC00FFF7B0FD00214FF48020FFF7ABFD09E0CD
:1019EC0001214FF40060FFF7A5FD00214FF40060CA
:1019FC00FFF7A0FD10BD01210846FFF7C1FD002136
:101A0C000120FFF7BDFDF5E701210220FFF7B8FD2E
:101A1C0000210220FFF7B4FDECE701210420FFF7C1
:101A2C00AFFD00210420FFF7ABFDE3E70121082007
:101A3C00FFF7A6FD00210820FFF7A2FDDAE7012140
:101A4C001020FFF79DFD00211020FFF799FDD1E735
:101A5C0001212020FFF794FD00212020FFF790FDAD
:101A6C00C8E701214FF40050FFF764FD00214FF44B
:101A7C000050FFF75FFDBDE701214FF40020FFF799
:101A8C0059FD00214FF40020FFF754FDB2E701216E
:101A9C004FF48010FFF74EFD00214FF48010FFF73C
:101AAC0049FDA7E701214FF40010FFF743FD00218A
:101ABC004FF40010FFF73EFD9CE701214020FFF79B
:101ACC005FFD00214020FFF75BFD93E701218020A3
:101ADC00FFF756FD00218020FFF752FD8AE7012118
:101AEC004FF48070FFF74CFD00214FF48070FFF72E
:101AFC0047FD7FE701214FF48030FFF71BFD0021EC
:101B0C004FF48030FFF716FD74E701214FF40030DD
:101B1C00FFF710FD00214FF40030FFF70BFD69E7D4
:101B2C00002C01407C8E000800040040000800409E
:101B3C00000C004000100040001400400034014034
:101B4C00004C01400050014000540140001800407E
:101B5C00001C0040002000400040014000440140B7
:101B6C000048014038B504460D46534B984242D0CC
:101B7C00B0F1804F3FD0A3F5943398423BD003F59E
:101B8C008063984237D003F58063984233D003F5D5
:101B9C00806398422FD003F5806398422BD003F5D5
:101BAC009033984227D003F5C053984223D003F5C5
:101BBC00806398421FD003F5806398421BD0A3F535
:101BCC009E33984217D003F58063984213D003F5E7
:101BDC00806398420FD003F5903398420BD003F5F5
:101BEC008063984207D003F58063984203D0E721C5
:101BFC00324800F055FE6B883BB1102B05D0202BE2
:101C0C0003D0402B01D0602B4CD1EB882BB1B3F51A
:101C1C00807F02D0B3F5007F49D123889BB2264A3E
:101C2C00944212D002F5006294420ED0B4F1804F6F
:101C3C000BD0A2F59832944207D002F58062944200
:101C4C0003D002F58062944203D123F070036A88BA
:101C5C0013431B4A944208D002F58062944204D08C
:101C6C0023F440739BB2EA8813432380AB88A3858B
:101C7C002B882385104B9C420FD003F500639C42AC
:101C8C000BD003F540639C4207D003F580639C4264
:101C9C0003D003F580639C4201D12B7A2386012368
:101CAC00A38238BDE821054800F0FAFDADE7E92133
:101CBC00024800F0F5FDB0E7002C01407C8E0008D6
:101CCC00001000404FF6FF73838000230380C38015
:101CDC00438003727047000038B504460D462E4B06
:101CEC00984243D0B0F1804F40D0A3F59433984242
:101CFC003CD003F58063984238D003F5806398425A
:101D0C0034D003F58063984230D003F58063984259
:101D1C002CD003F59033984228D003F5C053984249
:101D2C0024D003F58063984220D003F58063984259
:101D3C001CD0A3F59E33984218D003F580639842CB
:101D4C0014D003F58063984210D003F59033984279
:101D5C000CD003F58063984208D003F58063984259
:101D6C0004D040F229310D4800F09AFD012D06D81F
:101D7C005DB123889BB243F00103238038BD40F250
:101D8C002A31064800F08CFDF2E723889BB223F041
:101D9C0001039BB22380F1E7002C01407C8E0008EC
:101DAC0070B505460C461646314B984243D0B0F1FF
:101DBC00804F40D0A3F5943398423CD003F5806318
:101DCC00984238D003F58063984234D003F5806391
:101DDC00984230D003F5806398422CD003F59033B1
:101DEC00984228D003F5C053984224D003F5806361
:101DFC00984220D003F5806398421CD0A3F59E3303
:101E0C00984218D003F58063984214D003F5806390
:101E1C00984210D003F5903398420CD003F58063B0
:101E2C00984208D003F58063984204D040F26B319D
:101E3C00104800F035FD14F47F4F00D124B94FF455
:101E4C005B710C4800F02CFD012E05D856B1A98908
:101E5C0089B20C43AC8170BD40F26D31054800F085
:101E6C001FFDF3E7AB89E443A4B21C40AC81F2E75D
:101E7C00002C01407C8E000838B504460D46344BCE
:101E8C00984243D0B0F1804F40D0A3F594339842A0
:101E9C003CD003F58063984238D003F580639842B8
:101EAC0034D003F58063984230D003F580639842B8
:101EBC002CD003F59033984228D003F5C0539842A8
:101ECC0024D003F58063984220D003F580639842B8
:101EDC001CD0A3F59E33984218D003F5806398422A
:101EEC0014D003F58063984210D003F590339842D8
:101EFC000CD003F58063984208D003F580639842B8
:101F0C0004D040F65821134800F0CAFC6B1E9BB25B
:101F1C00012B0BD9042D09D0082D07D0102D05D07D
:101F2C00202D03D0402D01D0802D07D1228AA389EA
:101F3C002B40154208D04BB9002006E040F6592141
:101F4C00044800F0ADFCF1E7002038BD0120FCE7AF
:101F5C00002C01407C8E000838B505460C462A4BF7
:101F6C00984243D0B0F1804F40D0A3F594339842BF
:101F7C003CD003F58063984238D003F580639842D7
:101F8C0034D003F58063984230D003F580639842D7
:101F9C002CD003F59033984228D003F5C0539842C7
:101FAC0024D003F58063984220D003F580639842D7
:101FBC001CD0A3F59E33984218D003F58063984249
:101FCC0014D003F58063984210D003F590339842F7
:101FDC000CD003F58063984208D003F580639842D7
:101FEC0004D040F68221094800F05AFC14F47F4FCB
:101FFC0000D124B940F68321044800F051FCE4439D
:10200C00A4B22C8238BD00BF002C01407C8E00088D
:10201C0030B587B004460D46674B984213D0A3F5F4
:10202C00744398420FD003F5806398420BD003F5AC
:10203C008063984207D003F58063984203D0B8219F
:10204C005E4800F02DFC2B68013B5D4A934200F288
:10205C008580AB881BB1B3F5805F40F08480EB8842
:10206C0043B1B3F5805F05D0B3F5005F02D0B3F593
:10207C00405F7DD12B892BB1B3F5806F02D0B3F5C6
:10208C00C06F7AD16A8922F00C039BB203B91AB9DA
:10209C00BD214A4800F004FCAB8943B1B3F5807F05
:1020AC0005D0B3F5007F02D0B3F5407F6AD1AB8980
:1020BC0073B1414B9C420BD0A3F574439C4207D0A7
:1020CC0003F580639C4203D0C2213C4800F0E8FB3E
:1020DC00238A9BB2EA8823F4405313432382A389B7
:1020EC009BB2A98828896A8901430A4323F4B05317
:1020FC0023F00C031343A381A38A9BB2AA8923F474
:10210C0040731343A38201A8FFF76AF92A4B9C4240
:10211C003DD0039BA28912F4004F3AD103EB830309
:10212C0003EB830329688900B3FBF1F1254BA3FB77
:10213C00012358090501642300FB1313A28912F42F
:10214C00004F2FD11B0132331E4AA2FB0323C3F3D2
:10215C0043132B439BB2238107B030BDB9211748E1
:10216C0000F09EFB75E7BA21144800F099FB76E766
:10217C00BB21124800F094FB7CE7BC210F4800F017
:10218C008FFB7FE7BE210D4800F08AFB8FE7049B95
:10219C00C0E703EB830303EB830329684900B3FB1C
:1021AC00F1F1C3E7DA003232064BA3FB0232C2F381
:1021BC00421242EA0503CDE700380140188F0008AF
:1021CC001FAA44001F85EB5170B505460C46254BE4
:1021DC0098420CD0A3F57443984208D003F5806361
:1021EC00984204D04FF499711F4800F059FB238892
:1021FC0013B1B3F5006F1CD1638813B1B3F5806FC5
:10220C001DD1A38813B1B3F5007F1ED1E38813B1A0
:10221C00B3F5807F1FD12A8A92B220886688A18864
:10222C00E388304301430B4322F4706213432B8247
:10223C0070BD40F233110C4800F032FBDCE74FF478
:10224C009A71094800F02CFBDBE740F23511064887
:10225C0000F026FBDAE74FF49B71034800F020FBFB
:10226C00D9E700BF00380140188F000838B5044684
:10227C000D46174B984214D0A3F57443984210D0D6
:10228C0003F5806398420CD003F58063984208D024
:10229C0003F58063984204D04FF4B1710D4800F0FF
:1022AC00FFFA012D06D85DB1A3899BB243F400530C
:1022BC00A38138BD40F26311064800F0F1FAF2E751
:1022CC00A3899BB223F400539BB2A381F1E700BF17
:1022DC0000380140188F000870B505460C461646AC
:1022EC00384B984214D0A3F57443984210D003F5A0
:1022FC00806398420CD003F58063984208D003F5B4
:10230C008063984204D040F289112F4800F0C8FA3B
:10231C00282C19D040F227739C4215D040F226632A
:10232C009C4211D040F225539C420DD040F22443E4
:10233C009C4209D040F646039C4205D040F66A13F5
:10234C009C4201D0602C16D1012E1AD840F66A138B
:10235C009C421CD0C4F3421304F01F04012101FA67
:10236C0004F48B4224D0022B24D0143526B32B68D2
:10237C001C432C6070BD4FF4C571134800F090FAEB
:10238C00E2E740F28B11104800F08AFADEE70D4BC1
:10239C009D42DFD0A3F574439D42DBD003F58063EF
:1023AC009D42D7D040F28F11074800F079FAD1E75F
:1023BC000C35DBE71035D9E72B6823EA04042C60D5
:1023CC00D8E700BF00380140188F000838B5054623
:1023DC000C46124B984214D0A3F57443984210D07B
:1023EC0003F5806398420CD003F58063984208D0C3
:1023FC0003F58063984204D040F25F21084800F056
:10240C004FFAB4F5007F03D2C4F30804AC8038BD96
:10241C004FF41871024800F043FAF5E70038014018
:10242C00188F000810B504460D4B984214D0A3F534
:10243C007443984210D003F5806398420CD003F596
:10244C008063984208D003F58063984204D04FF41F
:10245C001C71044800F024FAA088C0F3080010BDD9
:10246C0000380140188F000838B505460C46274B3C
:10247C00984214D0A3F57443984210D003F58063AE
:10248C0098420CD003F58063984208D003F5806322
:10249C00984204D040F286311D4800F001FA012C1C
:1024AC0013D0802C11D0402C0FD0202C0DD0102C00
:1024BC000BD0B4F5807F08D0B4F5007F05D0082C84
:1024CC0003D0042C01D0022C07D1B4F5007F0AD024
:1024DC002B881C4218D0012038BD40F287310C48A3
:1024EC0000F0DEF9F1E7094B9D42F1D0A3F57443FE
:1024FC009D42EDD003F580639D42E9D040F28B31D3
:10250C00034800F0CDF9E3E70020E5E7003801408F
:10251C00188F000838B505460C461C4B984214D051
:10252C00A3F57443984210D003F5806398420CD005
:10253C0003F58063984208D003F58063984204D079
:10254C0040F2B631124800F0ABF924F458739BB248
:10255C0003B924B940F2B7310D4800F0A1F914F4D5
:10256C00007F0FD0094B9D420CD0A3F574439D42C4
:10257C0008D003F580639D4204D040F2BB3104487F
:10258C0000F08EF9E443A4B22C8038BD0038014031
:10259C00188F000838B505460C463D4B984214D0B0
:1025AC00A3F57443984210D003F5806398420CD085
:1025BC0003F58063984208D003F58063984204D0F9
:1025CC0040F2D931334800F06BF9282C20D040F27E
:1025DC0027739C421CD040F226639C4218D040F2D8
:1025EC0025539C4214D040F224439C4210D040F618
:1025FC0046039C420CD040F66A139C4208D0B4F5BA
:10260C00587F05D0B4F5187F02D0B4F5B07F1BD13C
:10261C0040F66A139C421DD0C4F3421204F01F0111
:10262C0001238B40012A26D0022A28D0AA8A92B2F2
:10263C001340240A012202FA04F42A8892B222409E
:10264C000BB312BB00201FE040F2DA31114800F04E
:10265C0027F9DDE70E4B9D42DED0A3F574439D4276
:10266C00DAD003F580639D42D6D040F2DE310948C2
:10267C0000F016F9D0E7AA8992B21340D9E72A8A5A
:10268C0092B21340D5E7002038BD0120FCE700BF13
:10269C0000380140188F000838B505460C46254B0C
:1026AC00984214D0A3F57443984210D003F580637C
:1026BC0098420CD003F58063984208D003F58063F0
:1026CC00984204D040F222411B4800F0E9F840F255
:1026DC0026639C420BD040F225539C4207D040F617
:1026EC0046039C4203D040F66A139C420BD140F641
:1026FC006A139C420DD0240A0123A3409BB2DB43F6
:10270C009BB22B8038BD40F223410B4800F0C8F837
:10271C00EDE7084B9D42EED0A3F574439D42EAD001
:10272C0003F580639D42E6D040F22741024800F059
:10273C00B7F8E0E700380140188F000808B500F042
:10274C0001F8FEE708B5034802F0B4FF0120FFF7DB
:10275C00F8FF00BFB88F000808B503460C4A126892
:10276C005AB10B4A1068033323F003030344094A9C
:10277C00934206D8064A136008BD054A0649116003
:10278C00EFE704F059FF0C2303604FF0FF30F3E741
:10279C00F4000020004C002084080020012303607A
:1027AC00014B0B60704700BF1800002008B504F007
:1027BC0043FF582303604FF0FF3008BD08B504F009
:1027CC003BFF582303604FF0FF3008BD08B504F001
:1027DC0033FF58230360002008BD08B504F02CFF1C
:1027EC00582303604FF0FF3008BD08B504F024FFF8
:1027FC00582303604FF0FF3008BD0000F8B5171EDA
:10280C0024DB0D4600240CE096F9001089B2114827
:10281C00FFF7DCFD80210F48FFF726FE0028F9D0DA
:10282C000134BC4214DA2E192B570A2BECD116F9B1
:10283C00013C0D2BE8D00D210648FFF7C7FD802188
:10284C000448FFF711FE0028F9D0DDE74FF0FF3701
:10285C003846F8BD0044004000B583B00C4619461C
:10286C00134682B10A4A83B1019300922346024671
:10287C00084802F01FFF084B5B6813F0010F00D0F3
:10288C0000BEFFF75FFF054AEDE7044BECE700BF26
:10289C00CC8F0008DC8F0008002004E0D88F0008E3
:1028AC0008B50A460146024802F004FFFFF74AFF4A
:1028BC000C90000808B500F06BF808BD08B500F0E6
:1028CC008FF808BD82B00023019300932C4A136843
:1028DC0043F4803313602A4B1B6803F400330093DA
:1028EC00019B01330193009B1BB9019BB3F5A06FB6
:1028FC00F1D1234B1B6813F4003F06D00123009346
:10290C00009B012B04D002B0704700230093F7E723
:10291C001C4B1A6842F010021A601A6822F003026B
:10292C001A601A6842F002021A60A3F580535A68C2
:10293C005A605A685A605A6842F480625A605A68FF
:10294C0022F47C125A605A6842F4E8125A601A68EF
:10295C0042F080721A600A4B1B6813F0007FFAD0A9
:10296C00074B5A6822F003025A605A6842F002027E
:10297C005A60034B5B6803F00C03082BF9D1C2E7D8
:10298C00001002400020024008B5FFF79BFF08BD75
:10299C0008B5104B1A6842F001021A6059680E4AC9
:1029AC000A405A601A6822F0847222F480321A604B
:1029BC001A6822F480221A605A6822F4FE025A60C5
:1029CC004FF41F029A60FFF7DFFF044B4FF00062D9
:1029DC009A6008BD001002400000FFF800ED00E016
:1029EC001F4B5B6803F00C03042B15D0082B17D07E
:1029FC001BB11C4B1C4A1A6002E01A4B1A4A1A6093
:102A0C00174B5B68C3F30313184AD35CDAB215494E
:102A1C000B68D3400B607047124B134A1A60EFE7F8
:102A2C000F4A53685268C3F38343023312F4803F56
:102A3C0005D10F4A02FB03F30A4A1360E0E7084A88
:102A4C00526812F4003F05D0094A02FB03F3054A11
:102A5C001360D5E7044A02FB03F3024A1360CFE785
:102A6C00001002403000002000127A0020000020EC
:102A7C0000093D0082B005230193019B1BB1019B12
:102A8C00013B0193F9E702B07047000008B550B163
:102A9C000A4940230B8003238B701023CB7008480A
:102AAC00FEF716FB08BD054940230B8003238B70F2
:102ABC000423CB700248FEF70BFBF3E770080020F1
:102ACC00000C014008B528B1012240210448FEF752
:102ADC00F5FB08BD002240210148FEF7EFFBF8E7AB
:102AEC00000C014008B550B10A4980230B80032328
:102AFC008B701023CB700848FEF7EAFA08BD054925
:102B0C0080230B8003238B700423CB700248FEF7C9
:102B1C00DFFAF3E770080020000C014008B528B17B
:102B2C00012280210448FEF7C9FB08BD0022802148
:102B3C000148FEF7C3FBF8E7000C014008B5802103
:102B4C000348FEF75FFB012800D0002008BD00BF42
:102B5C00000C014008B50020FFF7B4FF0120FFF77F
:102B6C0095FF0020FFF7BEFF0020FFF7D7FF08BD41
:102B7C0008B50020FFF7A6FFFFF77CFF0020FFF74A
:102B8C00B1FFFFF777FF0120FFF79CFFFFF772FF04
:102B9C000120FFF7A7FFFFF76DFF0020FFF792FF63
:102BAC0008BD08B50020FFF78DFF0120FFF79AFF45
:102BBC00FFF760FF0120FFF785FFFFF75BFF0020A9
:102BCC00FFF790FF08BD38B5044608250FE000203C
:102BDC00FFF788FFFFF74EFF0120FFF773FF64003C
:102BEC00E4B2FFF747FF0020FFF76CFF013D4DB14A
:102BFC000020FFF767FF14F0800FE8D10120FFF7EA
:102C0C0071FFE7E70020FFF76DFFFFF733FF0120AF
:102C1C00FFF758FFFFF72EFFFFF790FFB0FA80F495
:102C2C0064090020FFF74EFF204638BD70B50646FC
:102C3C000020FFF757FF082500240EE00120FFF7C6
:102C4C0041FF6400E4B2FFF779FF002818BF44F09D
:102C5C0001040020FFF736FF013D002DEED14EB9E7
:102C6C000120FFF72FFFFFF705FF0020FFF72AFFDA
:102C7C00204670BD0120FFF735FFF1E77047704724
:102C8C007047704710B5044604F077FC204610BD21
:102C9C0008B50C4B036000230371836001290BD032
:102CAC0002290CD029B1084B084A16210848FFF715
:102CBC00D3FD084B836008BD074B8360FBE7074BD4
:102CCC008360F8E7109100083890000840900008E5
:102CDC00509000080030014000380040003C00409B
:102CEC0010B501281ED0022830D028B1214B224A21
:102CFC0045212248FFF7B0FD214B1B6813F0010F53
:102D0C0003D020480028F1D010BD1E4C00212046D5
:102D1C00FFF7BEFF1A4B01221A601B4804F086FC19
:102D2C002046EFE7194B1B6813F0010F01D0184830
:102D3C00E8E7174C01212046FFF7AAFF134B0122AD
:102D4C001A60144804F072FC2046DBE7124B1B6837
:102D5C0013F0010F01D01148D4E7104C022120468A
:102D6C00FFF796FF0C4B01221A600D4804F05EFC35
:102D7C002046C7E738900008CC9000085090000817
:102D8C00FC000020080100208B2C00080001002012
:102D9C00140100208D2C00080401002020010020CB
:102DAC008F2C000803790BB10020704730B583B02D
:102DBC0004460121017141F21C00FEF76FFBA26871
:102DCC00124B9A421BD1E023ADF8043003258DF849
:102DDC00065018238DF807300D4C01A92046FEF73C
:102DEC0077F91023ADF804308DF806508DF80730C4
:102DFC0001A92046FEF76CF9012003B030BD054B4C
:102E0C00054A6D210548FFF727FD00BF0030014042
:102E1C000008014038900008F0900008509000081D
:102E2C0008B501218068FEF7B9FC08BD08B58068BB
:102E3C00FEF7CCFB08BD000010B50C4602210A4879
:102E4C00FEF70EFD0028F9D021460748FEF7D4FC0A
:102E5C0001210548FEF704FD0028F9D00248FEF7D1
:102E6C00E5FCC0B210BD00BF0030014008B50368DE
:102E7C009B68984708BD03690BB10020704701613E
:102E8C000120704708B543689B680430984708BD1B
:102E9C0010B50446054B03F108020260303340F8CC
:102EAC00043FFDF70BFB204610BD00BF409400080B
:102EBC00A0F10400FFF7ECBF10B50446FFF7E8FFE4
:102ECC00204604F05AFB204610BDA0F10400FFF789
:102EDC00F3BF000030B583B00B781F2B28D8054604
:102EEC000C464FF08040FEF7EFFC2378AB750121C8
:102EFC000820FEF7D3FA4FF44053ADF804301023FA
:102F0C008DF8073003238DF806300C4C01A92046B0
:102F1C00FEF7DEF800224FF480512046FEF7CEF982
:102F2C0000224FF400512046FEF7C8F903B030BD23
:102F3C00034B044A22210448FFF78EFC000C01408D
:102F4C0018910008409100087C91000870B5044667
:102F5C00057D012D0DD9022D07D1061D3046FDF73B
:102F6C000DFB90F90430042B19D025754FF001009E
:102F7C0070BD061D3046FDF701FB90F90430012BA6
:102F8C00F3D1254655F8043F9B69304698472B46AC
:102F9C004FF4FA620121FDF791FB0225E5E730467B
:102FAC00FDF7FCFAE1E7A0F10400FFF7CFBF00004A
:102FBC00012800D070474FF6FF739942FAD100B543
:102FCC0089B0174B1B68049304AB0293042303933F
:102FDC006B460421029883E80300124B124A1A60D4
:102FEC0001460422A2B90E4B5B68079307AB05930D
:102FFC00042306936B460421059883E803000B4BCE
:10300C00094A1A600146042232B909B05DF804FB82
:10301C00181D04F043FBE6E7181D04F03FFBF4E732
:10302C003894000834010020708A00082C0100201C
:10303C0010B504460F4B40F8043B0021FDF770FA25
:10304C000D4B03F1080222603033636000232361CF
:10305C00237563752022A2752383084B1B681BB94B
:10306C00064B1C60204610BD054B064A172106482E
:10307C00FFF7F2FB1C940008409400083C01002070
:10308C0004920008109200087C91000810B50346C9
:10309C00006928B10A4601680C681946A04710BDA2
:1030AC00024B034A7A210348FFF7D6FB34920008FF
:1030BC00409200087C91000808B501214FF0804037
:1030CC00FEF70AFE08BD08B500214FF08040FEF760
:1030DC0003FE08BD10B582B00446427D02F0010229
:1030EC004FF480511D48FEF7E9F8627DA37D9A42AA
:1030FC000AD001339A4216D0637D1F2B22D8637DF0
:10310C000133637502B010BD01224FF40051134816
:10311C00FEF7D4F802238DF805300DF10501204699
:10312C00FFF7B4FFE8E700224FF400510B48FEF71D
:10313C00C5F803238DF806300DF106012046FFF784
:10314C00A5FFD9E701238DF807300DF107012046C3
:10315C00FFF79CFF2046FFF7B6FFD0E7000C0140BD
:10316C0008B5064B186810B1FFF7B4FF08BD044B47
:10317C00044A19210448FFF76FFB00BF3C010020F3
:10318C007C92000888920008BC92000810B582B0AE
:10319C0001214FF08040FEF7DFFE1C238DF8043038
:1031AC0000238DF805308DF8063001248DF807408A
:1031BC0001A8FDF775FE224621464FF08040FEF730
:1031CC00EFFD02B010BD000070B588B00B88002B6D
:1031DC0042D004460D4603834FF08040FEF774FB4B
:1031EC0001210846FEF780F903A8FEF7F9F8234BF6
:1031FC005A685B68039B224AA2FB03239B092A881B
:10320C0002FB03F21F4BA3FB0213DB0B5E1EB6F596
:10321C00803F27D2B2FBF3F5B5F5803F03D35D1C9D
:10322C00B2FBF5F51E46B5F5803F21D26846FEF798
:10323C0049FDADF800600023ADF80230ADF8045044
:10324C00ADF8063069464FF08040FEF78BFC204607
:10325C00FFF79CFF08B070BD0B4B0C4A8E210C483D
:10326C00FFF7FAFA0B4B094AB9210948FFF7F4FAB0
:10327C00094B064ABC210648FFF7EEFA0010024043
:10328C00D34D6210018000804493000858930008CD
:10329C007C910008389000089493000870B582B0B7
:1032AC00837D1F2B1FD804460D4600268DF8076022
:1032BC000DF10701FFF7EAFE2046FFF704FF6675E4
:1032CC0032464FF480510D48FDF7F8FF228B2B88C6
:1032DC009A420ED14FF0804300229A842046FFF789
:1032EC00EBFE02B070BD064B064A5B210648FFF7A9
:1032FC00B3FA29462046FFF767FFEFE7000C0140C1
:10330C00A8930008D09300087C91000808B54FF6EC
:10331C00FF710120FFF74CFE08BD08B54FF6FF7199
:10332C000020FFF745FE08BD704710B5044604F0B9
:10333C0024F9204610BD0000012800D070474FF63C
:10334C00FF739942FAD100B589B0174B1B680493EF
:10335C0004AB0293042303936B460421029883E885
:10336C000300124B124A1A6001460422A2B90E4BFA
:10337C005B68079307AB0593042306936B46042104
:10338C00059883E803000B4B094A1A600146042296
:10339C0032B909B05DF804FB181D04F07FF9E6E7BB
:1033AC00181D04F07BF9F4E768950008480100202B
:1033BC00708A00084001002008B5184B0360FF23F9
:1033CC00037100238360022912D8154B53F8213066
:1033DC00EBB9134B43F821000171012911D00229DB
:1033EC0012D059B10F4B104A24211048FFF734FA70
:1033FC000F4B0D4A0D210D48FFF72EFA0D4B836034
:10340C0008BD0D4B8360FBE70C4B8360F8E7054B65
:10341C00054A29210548FFF71FFA00BF78950008D7
:10342C005001002038900008A4940008C0940008B3
:10343C008C940008003801400044004000480040D3
:10344C0008B501218068FEF711FF012008BD0000BE
:10345C002DE9F04188B003794BB104460D46022B9F
:10346C0005D0012B09D0002008B0BDE8F081384B05
:10347C00384A38213848FFF7EFF901210520FEF7CB
:10348C000DF801214FF40030FEF72EF84FF0040830
:10349C00ADF8008018238DF8033003268DF80260F8
:1034AC002E4F69463846FDF713FE0823ADF8003061
:1034BC008DF803808DF8026069463846FDF708FEEA
:1034CC000027ADF80870ADF80A704FF40073ADF832
:1034DC000C30ADF80E7002A9A068FEF775FE26231D
:1034EC008DF804308DF805608DF8067001268DF886
:1034FC0007600DEB0800FDF7D3FC0495ADF81470D4
:10350C00ADF81670ADF81870ADF81C700C23ADF852
:10351C001A3004A9A068FEF77BFD40F22551A06883
:10352C00FFF7BAF840F22661A068FFF7B5F832460B
:10353C0040F22551A068FEF7CFFE094A93889BB252
:10354C0043EA080393802046FFF77AFF30468BE767
:10355C00389000083C950008C09400080008014011
:10356C000030014008B54FF6FF710120FFF7E4FE73
:10357C0008BD08B54FF6FF710020FFF7DDFE08BD52
:10358C00064B1B7843B9064B1B7803B972B6044A39
:10359C0013780133DBB21370704700BF5D0100205C
:1035AC005C010020054B1B783BB9054A1378013BA5
:1035BC00DBB21370137803B962B670475D0100205B
:1035CC005C010020012800D070474FF6FF73994230
:1035DC00FAD100B589B0174B1B68049304AB029366
:1035EC00042303936B460421029883E80300124BD7
:1035FC00124A1A6001460422A2B90E4B5B6807936B
:10360C0007AB0593042306936B460421059883E8C6
:10361C0003000B4B094A1A600146042232B909B067
:10362C005DF804FB181D04F039F8E6E7181D04F0EA
:10363C0035F8F4E78095000868010020708A0008CE
:10364C006001002008B54FF6FF710120FFF7BAFFAB
:10365C0008BD08B54FF6FF710020FFF7B3FF08BD9A
:10366C00007B704782B0094B5B680020DAB262F3D2
:10367C000700C3F3072262F30F20C3F3074262F380
:10368C0017401B0E63F31F6002B0704774010020DB
:10369C007047A0F10400FFF7FBBF7047A0F10800D2
:1036AC00FFF7FBBF08B5074B03F10802026003F1FB
:1036BC00400242605C338360034B044A1D21044882
:1036CC00FFF7CAF8F09600083890000888950008B3
:1036DC00C8950008A0F10400FFF7E4BFA0F10800B2
:1036EC00FFF7E0BF08B50248FFF7DCFF08BD00BFDD
:1036FC008401002010B50446FFF7D4FF204603F0E8
:10370C003CFF204610BDA0F10800FFF7F3BFA0F16D
:10371C000400FFF7EFBF000000B583B0053A01923B
:10372C0001AB4A1D0349103001F030F8012003B001
:10373C005DF804FB7C010020012800D070474FF697
:10374C00FF739942FAD100B589B0174B1B680493EB
:10375C0004AB0293042303936B460421029883E881
:10376C000300124B124A1A6001460422A2B90E4BF6
:10377C005B68079307AB0593042306936B46042100
:10378C00059883E803000B4B094A1A600146042292
:10379C0032B909B05DF804FB181D03F07FFFE6E7B2
:1037AC00181D03F07BFFF4E7E89600087C0100206D
:1037BC00708A00087401002038B504460B4B40F8A1
:1037CC00043B03F08DF90A4B03F10802226003F16C
:1037DC00400262605C33A3600025257304F1100085
:1037EC0000F06AFC6567204638BD00BF44B0000895
:1037FC00F096000808B5084B1B6813F0010F01D0B8
:10380C00064808BD0548FFF7D7FF034B01221A6095
:10381C00034803F00BFFF3E7700100208401002044
:10382C00F136000810B584B00392029383683BB163
:10383C0006AB0093C46802AB03AAA04704B010BD4A
:10384C0003F0C7FE30B583B0436F73B104460D4629
:10385C0003F056F90246EB6800932B68214604F1FD
:10386C006C00FFF7DFFF03B030BD034B034A582158
:10387C000348FEF7F1FF00BF4C9600086496000861
:10388C00C8950008A0F10800FFF7DCBF38B5044666
:10389C00002383608B6833B10D4602229847EB6896
:1038AC00E360AB68A360204638BD30B587B000F14B
:1038BC006C0402AD2846FFF7E9FF6B4695E8030060
:1038CC0083E8030094E8030085E8030093E8030011
:1038DC0084E80300049AA3680493A260059AE16843
:1038EC000591E2601BB1032202A90846984707B074
:1038FC0030BD000070B582B005460E4661B1941B18
:10390C0001940F2C0DD82868012C13D0ACB1224691
:10391C00314603F0B5FE10E09142F0D00A4803F0B6
:10392C0052FE002201A9284603F056FE2860019B96
:10393C00AB60E8E796F900300370019B6B602A6876
:10394C000021D15402B070BDB496000810B50446E5
:10395C0000F108030360044A4FF00003111FFFF746
:10396C00C9FF204610BD00BFE4960008A1F1040178
:10397C00FFF7ECBF10B5044600F108030360044ADE
:10398C004FF00003111FFFF7B5FF204610BD00BF1D
:10399C00E4960008A1F10401FFF7ECBF08B54FF65F
:1039AC00FF710120FFF7C8FE08BD08B54FF6FF7187
:1039BC000020FFF7C1FE08BD38B5037B0BB1012019
:1039CC0038BD044600F11005284600F099FC04F1BE
:1039DC000801284600F0C8FA01232373EFE770476B
:1039EC0010B5044603F0C9FD204610BD012800D0D7
:1039FC0070474FF6FF739942FAD100B589B0174B57
:103A0C001B68049304AB0293042303936B460421B9
:103A1C00029883E80300124B124A1A6001460422F2
:103A2C00A2B90E4B5B68079307AB0593042306936F
:103A3C006B460421059883E803000B4B094A1A6076
:103A4C000146042232B909B05DF804FB181D03F0DD
:103A5C0025FEE6E7181D03F021FEF4E7809B000825
:103A6C0008020020708A000800020020034A02604D
:103A7C000022027181600273704700BF909B0008A6
:103A8C0003790BB10020704710B5012404718068D4
:103A9C0000F064FF204610BD08B583689868FFF7F6
:103AAC00CBF908BD38B5612921D005460C46A029B3
:103ABC0023D0012927D061B3A12930D0B02934D02B
:103ACC000223013BFDD1002210212C48FDF7F6FB0F
:103ADC00602C46D031D8502C2DD121462846FFF7EA
:103AEC00DBFF044673212846FFF7D6FF2AE0244B60
:103AFC00244A29212448FEF7AFFE244B214A2A21CF
:103B0C002148FEF7A9FE224B1E4A2B211E48FEF728
:103B1C00A3FE204B1B4A2C211B48FEF79DFE1E4B7F
:103B2C00184A2D211848FEF797FE1C4B154A2E21DA
:103B3C001548FEF791FE002404E0E32C09D8E12C93
:103B4C0009D20024012210210C48FDF7B7FB2046B6
:103B5C0038BDFF2C0FD121462846FFF79DFF0446A8
:103B6C00F0E721462846FFF797FFFF212846FFF78D
:103B7C0093FF0446E6E70024E4E700BF0008014099
:103B8C005C97000870970008A49700082498000818
:103B9C00389800084C98000860980008789800083D
:103BAC0008B5FF21FFF77EFF08BD000008B5FFF741
:103BBC00F7FFC0F34200831FDBB2012B00D908BD15
:103BCC00024B034AEB210348FEF746FE38900008EF
:103BDC0094980008A497000838B5037B8B4201D158
:103BEC00002038BD04460D465021FFF75BFF2573BE
:103BFC000120F6E72DE9F04105460F461646022452
:103C0C00013CFDD1002210210C48FDF757FBA021EF
:103C1C002846FFF741FF80463368A34205D9395D3A
:103C2C002846FFF739FF0134F6E70122102103483B
:103C3C00FDF744FB4046BDE8F08100BF00080140A1
:103C4C0070B5A1F10A03DBB2062B1AD904460D4656
:103C5C000223013BFDD10E4E002210213046FDF710
:103C6C002DFB29462046FFF717FFFF212046FFF7C3
:103C7C0013FF0446012210213046FDF71FFB20469E
:103C8C0070BD044B044A92210448FEF7E5FD00BFC9
:103C9C0000080140C498000804990008A497000883
:103CAC0008B5052906D8037B53B91131C9B2FFF702
:103CBC00C7FF08BD044B054AF1210548FEF7CCFDB2
:103CCC006021FFF7EFFEF4E74499000854990008CF
:103CDC00A497000808B51721FFF7B2FF00F0010008
:103CEC0008BD08B51721FFF7ABFFC0F3400008BDB6
:103CFC00F8B5A1F10A03DBB2062B1CD904460D461C
:103D0C0016460223013BFDD10E4F002210213846EE
:103D1C00FDF7D4FA45F020012046FFF7BDFE05461D
:103D2C0031462046FFF7B8FE012210213846FDF738
:103D3C00C5FA2846F8BD044B044AB5210448FEF7E1
:103D4C008BFD00BF00080140C4980008849900084E
:103D5C00A497000870B505460C4616460221FFF7DD
:103D6C006FFF34F03F0308D176B140EA0402D2B2BF
:103D7C0002212846FFF7BCFF70BD054B054A40F2F7
:103D8C0005110548FEF768FD20EA0402D2B2EFE700
:103D9C00D4990008F4990008A497000870B505465A
:103DAC000C4616460121FFF74BFF34F03F0308D1B8
:103DBC0076B140EA0402D2B201212846FFF798FFFF
:103DCC0070BD054B054A40F21B110548FEF744FD3A
:103DDC0020EA0402D2B2EFE7D4990008209A000836
:103DEC00A497000838B504460D46037B63B11D212A
:103DFC002046FFF725FF5DB140F00102D2B21D2134
:103E0C002046FFF775FF38BD0121FFF7E5FEEEE711
:103E1C0000F0FE02F3E70000F8B506460D4602245A
:103E2C00013CFDD1002210210C48FDF747FAA021DE
:103E3C003046FFF731FE0746EB689C4206D22B68F2
:103E4C00195D3046FFF728FE0134F5E701221021F9
:103E5C000248FDF733FA3846F8BD00BF00080140B0
:103E6C002DE9F843CB687BB180460D460224013C1A
:103E7C00FDD1002210211148FDF720FA61214046A6
:103E8C00FFF70AFE81460DE00D4B0E4A7E210E48CF
:103E9C00FEF7E2FC661D2F68FF214046FFF7FCFD94
:103EAC00B8550134EB68053BA342F3D8012210212D
:103EBC000248FDF703FA4846BDE8F88300080140C4
:103ECC00609A0008709A0008A4970008F8B5A1F150
:103EDC000A03DBB2062B11D805460F461646022400
:103EEC00013CFDD1002210210F48FDF7E7F947F006
:103EFC0020012846FFF7D0FD07460BE00B4B0C4A80
:103F0C00C5210C48FEF7A8FC331919792846FFF790
:103F1C00C3FD0134032CF7D9012210210248FDF70F
:103F2C00CDF93846F8BD00BF00080140A49A00083E
:103F3C00309B0008A497000808B54FF6FF710120CC
:103F4C00FFF754FD08BD08B54FF6FF710020FFF7D1
:103F5C004DFD08BD90F828300BB9012070470220A8
:103F6C00704790F821007047436A0BB100207047EE
:103F7C00416201207047000070B505460F4B03F1FC
:103F8C000802026003F13C0242604C33436110F1C1
:103F9C002C0609D000F15C04A64205D054F8083D6B
:103FAC001B6820469847F7E705F11400FCF786FAE2
:103FBC00281DFFF714FD284670BD00BF60A0000847
:103FCC00A0F10400FFF7D8BFA0F11400FFF7D4BF95
:103FDC0010B50446FFF7D0FF204603F0CEFA20467A
:103FEC0010BDA0F11400FFF7F3BFA0F10400FFF720
:103FFC00EFBF000010B5047A24B17D2909D9002443
:10400C00204610BD094B0A4A40F2E9110948FEF757
:10401C0023FC90F821308B42F2D080F821100A4614
:10402C0005210430FFF764FEEAE700BF989B000807
:10403C00B09B0008049C0008012800D070474FF684
:10404C00FF739942FAD100B589B0174B1B680493E2
:10405C0004AB0293042303936B460421029883E878
:10406C000300124B124A1A6001460422A2B90E4BED
:10407C005B68079307AB0593042306936B460421F7
:10408C00059883E803000B4B094A1A600146042289
:10409C0032B909B05DF804FB181D03F0FFFAE6E72E
:1040AC00181D03F0FBFAF4E758A000081C020020CE
:1040BC00708A00081402002038B5044605461E4BD1
:1040CC0045F8043B00F0DCFB01462846FFF7CEFC2C
:1040DC00002104F11400FCF723FA184B03F1080239
:1040EC00226003F13C0262604C336361002384F86C
:1040FC002030022284F82120636284F828300123C6
:10410C0084F8293004F12C030522002A06DB0C4923
:10411C001960002159600833013AF6E7094B1B6816
:10412C001BB9084B1C60204638BD074B074A1E21A3
:10413C000748FEF791FB00BF34A0000860A0000800
:10414C00708A000824020020049200088C9C00084D
:10415C00049C000830B585B001211120FDF79EF9B3
:10416C0004238DF80F304FF40074ADF80C4003A904
:10417C001248FCF7ADFF09210220FDF703F9204698
:10418C00FCF794FF019400258DF808500C238DF852
:10419C00093001248DF80A4001A8FCF7CDFE172345
:1041AC008DF8003002238DF801308DF802508DF817
:1041BC0003406846FCF774FE05B030BD00100140AA
:1041CC0038B504460E4B1B6813F0010F0BD00D4D88
:1041DC0001232B706369DB680B4904F114009847C9
:1041EC0000232B7038BD00F1140200210648FCF7A7
:1041FC00F1F9034B01221A60044803F017FAE6E7C1
:10420C00100200205D010020280200205148000807
:10421C0008B50A4610210430FFF758FE08BD0629E0
:10422C0000D9704770B504460E4615460A31C9B21E
:10423C000430FFF74BFE701D04EBC00000F10803C7
:10424C002A1D032104E012F8010B03F8010B0139BC
:10425C000029F8DA70BD000008B5CB1EDBB2022BCA
:10426C0006D80239CAB203210430FFF741FD08BD5C
:10427C00034B044A40F259110348FEF7EDFA00BF14
:10428C00B49C0008F09C0008049C000808B504309D
:10429C00FFF7A2FC08BD000070B5037C63B10D46AE
:1042AC001646041D1D212046FFF7CAFC95B156B1D8
:1042BC0040F00400C2B20FE00D4B0E4A40F27111F7
:1042CC000D48FEF7C9FA0D4B0A4A40F277110A481D
:1042DC00FEF7C2FA00F0FB021D212046FFF708FD95
:1042EC0005B970BD32461C212046FFF701FDF8E7E9
:1042FC002C9D0008449D0008049C0008809D00082B
:10430C0090F820300BB1012070472DE9F04782B0B6
:10431C000446012680F820603B4801F0B5F931468F
:10432C001020FDF7BBF84FF48079ADF8049003270B
:10433C008DF806704FF0100A8DF807A0DFF8E080BA
:10434C0001A94046FCF7C4FE251D2846FFF798FB43
:10435C00324651462D48FCF7B1FF002249464046F3
:10436C00FCF7ACFFE1212846FFF79CFBE221284635
:10437C00FFF798FB702207212846FFF7B9FC0421B0
:10438C002046FFF769FF39462846FFF759FC0228FB
:10439C002DD101212046FFF779FF03220121204670
:1043AC00FFF77AFF1D212846FFF74AFC10F0040F97
:1043BC0023D001212846FFF715FD082200212846AD
:1043CC00FFF796FC23685B6A204698472046FFF768
:1043DC00C1FE23689B6902212046984723681B690C
:1043EC00022120469847012002B0BDE8F087084B17
:1043FC00084A4E210848FEF72FFA084B054A52216D
:10440C000548FEF729FA00BF8C9D00080008014002
:10441C00A89D0008F89D0008049C00082C9E00082C
:10442C000010014038B590F828308B4201D10120A2
:10443C0038BD0D4680F82810041D00212046FFF7DA
:10444C00FFFB8DB140F00302D2B200212046FFF7F2
:10445C004FFC01224FF480710A48FCF72FFF42F207
:10446C001073013BFDD1E2E700F0FD020021204674
:10447C00FFF73EFC00224FF480710248FCF71EFF50
:10448C00D5E700BF0010014008B5037A33B102290B
:10449C0014BF00210121FFF7C5FF08BD034B044ADF
:1044AC0040F2A3110348FEF7D7F900BF989B000810
:1044BC00889E0008049C000810B5041D00212046AD
:1044CC00FFF7BEFB00F0FE0200212046FFF710FCB8
:1044DC0010BD0000F0B583B0037A4BB304460D4613
:1044EC00CB6863B3684602F02DF969462046FFF7A6
:1044FC008FFE284602F09EF9271D144E00224FF421
:10450C0080713046FCF7DAFE29463846FFF784FC0A
:10451C002046FFF7D1FF01224FF480713046FCF7A3
:10452C00CDFE42F21073013BFDD1012003B0F0BD72
:10453C00074B084A4FF403710748FEF78DF9074BF8
:10454C00044A4FF404710448FEF786F90010014048
:10455C00989B0008CC9E0008049C0008389000082A
:10456C0010B5041D00212046FFF76AFB40F0010244
:10457C00D2B200212046FFF7BBFB10BD70B582B054
:10458C000446051D012211462846FFF7E3FB134A9A
:10459C0000212046FFF743FE002201212846FFF7A9
:1045AC00FDFB002202212846FFF7D4FB0C4E3246BD
:1045BC0001212046FFF733FE002202212846FFF797
:1045CC00EDFB084B00937368019369462046FFF797
:1045DC001FFE2046FFF7C4FF02B070BD140200207E
:1045EC001C020020708A0008F0B585B00646051D37
:1045FC002846FFF7D5FA337A6BB94FF0020005B0B5
:10460C00F0BDE2212846FFF74DFA2846FFF7C8FA1D
:10461C0010F0400F55D12846FFF75CFB002858D10D
:10462C002846FFF7C3FA04460528EED8014628466B
:10463C00FFF736FB07462028E3D820B9E2212846AD
:10464C00FFF730FAE1E7411D684602F009F96846C8
:10465C0002F0C3F800282FD0053406EBC404043450
:10466C00009B1BB362681A60009B1F716946284649
:10467C00FFF7F6FB706A18B103689B6869469847A8
:10468C00019C002CC1D06368013B6360002BBCD142
:10469C0023689B6820469847A368013BA360002BC6
:1046AC00B3D12368DB6820469847AEE7324B334AD8
:1046BC0083213348FEF7D0F8E2212846FFF7F2F9C0
:1046CC00DEE740F04002D2B207212846FFF710FB8C
:1046DC00A1E72846FFF764FA044610F0400F12D108
:1046EC0014F0010F18D114F0200F1AD114F0100F80
:1046FC0028D12846FFF7F5FA10B114F0400F36D048
:10470C004FF001007BE740F04002D2B2072128466F
:10471C00FFF7EEFA0446E3E7E1212846FFF7C2F97A
:10472C00E1E744F02002D2B207212846FFF7E0FA75
:10473C000446706A0368DB68012198473046FFF72E
:10474C000FFFD3E7E1212846FFF7ACF944F0100244
:10475C00D2B207212846FFF7CBFA0446706A0368E9
:10476C00DB68032198473046FFF7FAFEC1E7E221E8
:10477C002846FFF797F9C3E70C9F0008109F000825
:10478C00789F0008A0F11400FFF72EBF2DE9F0412F
:10479C0082B01D46037A6BB3044616462B6883B36E
:1047AC001B4B00934B6801936946FFF731FD29467B
:1047BC00304602F023F804F10408164F00224FF49F
:1047CC0080713846FCF77AFD2A4631464046FFF7A1
:1047DC0011FA2046FFF770FE01224FF48071384623
:1047EC00FCF76CFD42F21073013BFDD1012002B0CD
:1047FC00BDE8F081084B094A40F22B210848FEF72E
:10480C002BF8084B054A40F22F210548FEF724F8F7
:10481C00708A000800100140989B0008D49F000883
:10482C00049C00083890000808B54FF6FF71012071
:10483C00FFF702FC08BD08B54FF6FF710020FFF72B
:10484C00FBFB08BD08B50248FBF7BCFE08BD00BF6A
:10485C00280200207047704710B5044602F08DFE08
:10486C00204610BD10B50446044B03600020207197
:10487C00FEF736FAA060204610BD00BFD0A000089D
:10488C0008B5084B1B6813F0010F01D0064808BD92
:10489C000548FFF7E7FF034B01221A60034802F0BB
:1048AC00C5FEF3E73C0200204002002063480008EC
:1048BC0010B586B004468068FEF7B8FA0023ADF850
:1048CC0004304FF48272ADF80620ADF808300222A5
:1048DC00ADF80A200122ADF80C204FF40072ADF8AF
:1048EC000E20ADF81030ADF812300723ADF81430AF
:1048FC0001A90448FCF7AEFEA068FEF791FA06B0D9
:10490C0010BD00BF0030014010B586B00446806871
:10491C00FEF78CFA0023ADF804304FF48272ADF838
:10492C000620ADF80830ADF80A30ADF80C304FF475
:10493C000072ADF80E202022ADF81020ADF8123028
:10494C000723ADF8143001A90348FCF783FEA068D7
:10495C00FEF766FA06B010BD0030014038B5037999
:10496C000BB1002038BD0446012505718068FEF7A7
:10497C0019FA2046FFF7C8FF2846F3E7704710B531
:10498C00044602F0FAFD204610BD0000024A026007
:10499C000022027181607047E0A0000803790BB11E
:1049AC000020704710B5012404718068FFF7D6FF12
:1049BC00204610BD08B58068FFF77AFF08BD08B522
:1049CC008068FFF7A1FF08BD38B505460C460022EC
:1049DC0004210448FCF772FCAB6821469868FEF78A
:1049EC002BFA38BD000C014038B505460C460122A7
:1049FC0004210448FCF762FCAB6821469868FEF77A
:104A0C001BFA38BD000C0140704770477047704767
:104A1C0070477047704770477047542202603022CD
:104A2C0042607047012070470120704730B40C6819
:104A3C00542C19DC4B68302B16DC1946002B15DB7B
:104A4C00C910542505FB01415C4203F0070304F037
:104A5C00070458BF63424418247CB2F1FF3F07D0CF
:104A6C00012A0CD001440C7430BC7047D91DE7E707
:104A7C00DBB2012202FA03F324EA0304F2E7DBB20D
:104A8C0002FA03F31C43E4B2ECE7000010B5044651
:104A9C00054B03F108020260583340F8043FFFF75E
:104AAC006DFF204610BD00BF9CA20008A0F10400C1
:104ABC00FFF7ECBF10B50446FFF7E8FF204602F005
:104ACC005CFD204610BDA0F10400FFF7F3BF82B0DF
:104ADC000023019302238DF80430019802B0704733
:104AEC0008B54FF4FC720021103002F0F1FD08BD46
:104AFC0010B50C68532C1DDC4B682F2B20DC1A4690
:104B0C00002B23DBD210542101FB02415A4203F04B
:104B1C00070302F0070258BF5342DBB2012202FA2C
:104B2C0003F3DAB20844017C0B40934210D04FF0EF
:104B3C00FF3010BD074B084A61210848FDF78CFE79
:104B4C00074B054A62210548FDF786FEDA1DD9E7B9
:104B5C000120EEE7E8A00008F8A0000848A1000832
:104B6C00D0A10008F0B583B0054616461F460C468A
:104B7C0061B3284B284AA7212848FDF76DFE019BFD
:104B8C00009A542101FB03231A46002B0DDBD21093
:104B9C00594203F0070301F0070158BF4B420121B2
:104BAC009940B35C0B43B35424E0DA1DEFE7D21009
:104BBC00594203F0070301F0070158BF4B42012192
:104BCC009940B35C23EA0103B3540134BC421ED2B6
:104BDC00A108134BA3FB01318B08542202FB134396
:104BEC008908009301912B68DB6969462846984730
:104BFC000128C4D0B0F1FF3FE7D1019B009A5421AA
:104C0C0001FB03231A46002BD1DADA1DCFE703B0E0
:104C1C00F0BD00BFE4A10008F8A1000848A10008FD
:104C2C00310CC330012800D070474FF6FF73994206
:104C3C00FAD100B589B0174B1B68049304AB0293EF
:104C4C00042303936B460421029883E80300124B60
:104C5C00124A1A6001460422A2B90E4B5B680793F4
:104C6C0007AB0593042306936B460421059883E850
:104C7C0003000B4B094A1A600146042232B909B0F1
:104C8C005DF804FB181D02F009FDE6E7181D02F0A3
:104C9C0005FDF4E794A2000854020020708A000875
:104CAC004C02002038B504460546084B45F8043B39
:104CBC00FFF7E6FD01462846FFF768FE044B03F1BB
:104CCC000802226058336360204638BD4CA20008AD
:104CDC009CA2000808B529B1002280210248FCF7EB
:104CEC00EDFA08BD0122F8E70010014008B531B11A
:104CFC0000224FF480610348FCF7E0FA08BD012262
:104D0C00F7E700BF0010014070B505460E46041DC4
:104D1C002046FFF74FFE01212846FFF7E7FF212130
:104D2C002046FFF751FE46F080012046FFF74CFE6F
:104D3C0020212046FFF748FE00212846FFF7D6FF2A
:104D4C002046FFF73CFE70BD38B50546041D2046D5
:104D5C00FFF730FE01212846FFF7C8FF212120462E
:104D6C00FFF732FEC8212046FFF72EFE0621204613
:104D7C00FFF72AFE13212046FFF726FE20212046AE
:104D8C00FFF722FE08212046FFF71EFE0C212046CD
:104D9C00FFF71AFE00212846FFF7A8FF2046FFF771
:104DAC000EFE38BD70B50546061D3046FFF702FEF7
:104DBC0001212846FFF79AFF80213046FFF704FEB9
:104DCC0040213046FFF700FE0024B4F5FC7F06DAE4
:104DDC002B19197C3046FFF707FE0134F5E700214B
:104DEC002846FFF783FF3046FFF7E9FD70BD000052
:104DFC002DE9F04182B0044601211020FCF74EFB56
:104E0C00201DFFF7CBFD4FF00408ADF804800326FE
:104E1C008DF8066010258DF80750234F0DEB080117
:104E2C003846FCF755F9012241463846FCF746FA5C
:104E3C004FF49063ADF804308DF806608DF8075090
:104E4C001A4D0DEB08012846FCF742F901224FF4EC
:104E5C0080612846FCF732FA012280212846FCF7B3
:104E6C002DFA01212046FFF735FF4FF4FA631A465D
:104E7C00013B002AFBD100212046FFF72BFF2046E7
:104E8C00FFF762FF45212046FFF73EFF23685B6A70
:104E9C004FF0FF31204698472046FFF783FF012053
:104EAC0002B0BDE8F08100BF000C014000100140D1
:104EBC002DE9F04782B006460F46924698464FEAD7
:104ECC00C1094D4605E0E21D19E069463046984798
:104EDC00013509EB0803AB4226D9AC08154BA3FBF3
:104EEC000434A208542101FB1252A408009201942C
:104EFC0033681B6A01FB04242246002CE3DBC7EB5E
:104F0C00E2021AF80210624204F0070402F00702EF
:104F1C0058BF5442012202FA04F40C4064B2002C33
:104F2C00D3D14FF0FF32D0E73046FFF73BFF02B052
:104F3C00BDE8F087310CC33008B54FF6FF71012086
:104F4C00FFF770FE08BD08B54FF6FF710020FFF7A4
:104F5C0069FE08BD10B50446044B03F1080202605B
:104F6C0058334360FFF792FD204610BD04A30008A0
:104F7C00A0F10400FFF7EEBF10B50446FFF7EAFFFF
:104F8C00204602F0FAFA204610BDA0F10400FFF70B
:104F9C00F3BF0000012800D070474FF6FF73994211
:104FAC00FAD100B589B0174B1B68049304AB02937C
:104FBC00042303936B460421029883E80300124BED
:104FCC00124A1A6001460422A2B90E4B5B68079381
:104FDC0007AB0593042306936B460421059883E8DD
:104FEC0003000B4B094A1A600146042232B909B07E
:104FFC005DF804FB181D02F051FBE6E7181D02F0EA
:10500C004DFBF4E7FCA2000864020020708A000843
:10501C005C02002010B50446FFF744FE034B03F17D
:10502C000802226058336360204610BD04A30008B8
:10503C0008B54FF6FF710120FFF7ACFF08BD08B5AE
:10504C004FF6FF710020FFF7A5FF08BD08B5FFF76D
:10505C00CFFE08BD00B587B00146002201A800F0C4
:10506C0093FC4FF0FF3101A800F0ECFF01A800F019
:10507C00BDFD01A800F0CCFD07B05DF804FBF0B558
:10508C008FB006460C4617461D460022014601A865
:10509C0000F07AFC314601A800F0CDFDED0006973A
:1050AC0007950AAB0893ECB1204602F099FC221844
:1050BC004FF00003214608A8FEF71CFC012308AAA8
:1050CC0006A901A800F0C4FD08980AAB984201D0CB
:1050DC0002F053FA01A800F089FD01A800F098FD38
:1050EC000FB0F0BD621EE3E770B586B004460D4606
:1050FC0016460022014601A800F046FC214601A8F4
:10510C0000F099FD01233246294601A800F02EFE3D
:10511C0001A800F06BFD01A800F07AFD06B070BD8F
:10512C00012800D070474FF6FF739942FAD100B5B1
:10513C0089B0174B1B68049304AB029304230393AD
:10514C006B460421029883E80300124B124A1A6042
:10515C0001460422A2B90E4B5B68079307AB05937B
:10516C00042306936B460421059883E803000B4B3C
:10517C00094A1A600146042232B909B05DF804FBF1
:10518C00181D02F08BFAE6E7181D02F087FAF4E717
:10519C000CA4000874020020708A00086C02002025
:1051AC0010B582B001210820FCF778F92024ADF865
:1051BC00004028238DF8033003238DF80230694614
:1051CC000B48FBF785FFFDF7C5FC0F210DF1070020
:1051DC0000F09AF82146C72000F07BF821215820D6
:1051EC0000F077F82221002000F073F802B010BD17
:1051FC00000C01402DE9F04782B080460F46154661
:10520C0000242646A146A24634BB282101A800F062
:10521C007BF829210DF1050000F076F8BDF904307A
:10522C009A442A2101A800F06FF82B210DF10500FA
:10523C0000F06AF8BDF9043099442C2101A800F063
:10524C0063F82D210DF1050000F05EF8BDF9043076
:10525C001E440134E4B2D7E7A8F800A0A7F80090E8
:10526C002E8002B0BDE8F08708B5064B1B781BB941
:10527C00FFF796FF012008BD034B044A8821044820
:10528C00FDF7EAFA7C0200203890000864A30008BD
:10529C008CA3000808B54FF6FF710120FFF740FF03
:1052AC0008BD08B54FF6FF710020FFF739FF08BDA8
:1052BC0038B5054642F21074FDF75AFC013C06D095
:1052CC002846FDF780FC0128F6D1002038BD0120CE
:1052DC00FCE770B506460D463A20FFF7E9FF044699
:1052EC00012806D0E8B2FDF76EFC0446012802D076
:1052FC000124204670BD3046FDF765FC0128F8D12D
:10530C00FDF74FFC0024F4E738B505460C463A206F
:10531C00FFF7CEFF012805D0E0B2FDF754FC0128C1
:10532C0001D0012038BDFDF723FC3B20FDF74BFCE1
:10533C000020FDF77BFC2870FDF733FC0020F1E723
:10534C00012800D070474FF6FF739942FAD100B58F
:10535C0089B0174B1B68049304AB0293042303938B
:10536C006B460421029883E80300124B124A1A6020
:10537C0001460422A2B90E4B5B68079307AB059359
:10538C00042306936B460421059883E803000B4B1A
:10539C00094A1A600146042232B909B05DF804FBCF
:1053AC00181D02F07BF9E6E7181D02F077F9F4E717
:1053BC0014A4000888020020708A000880020020D3
:1053CC0008B54FF44070FBF749FD00F013F908BD28
:1053DC0008B54FF6FF710120FFF7B2FF08BD08B505
:1053EC004FF6FF710020FFF7ABFF08BD012800D07E
:1053FC0070474FF6FF739942FAD100B589B0174B3D
:10540C001B68049304AB0293042303936B4604219F
:10541C00029883E80300124B124A1A6001460422D8
:10542C00A2B90E4B5B68079307AB05930423069355
:10543C006B460421059883E803000B4B094A1A605C
:10544C000146042232B909B05DF804FB181D02F0C4
:10545C0025F9E6E7181D02F021F9F4E71CA4000871
:10546C0098020020708A00089002002008B54FF6C0
:10547C00FF710120FFF7BAFF08BD08B54FF6FF71A9
:10548C000020FFF7B3FF08BD10B50446044B0360C2
:10549C00044B40F8083FFBF711F8204610BD00BF45
:1054AC00E0A40008548B000810B50446FFF7ECFF8D
:1054BC00204602F062F8204610BD000010B50446EC
:1054CC00044B03600021017102460830FBF7AEFC6F
:1054DC00204610BDE0A4000803790BB101207047F1
:1054EC0030B583B00124047121461020FBF7D6FFA0
:1054FC000B4D22464FF480512846FBF7DFFE4FF44C
:10550C008053ADF8043010238DF8073003238DF849
:10551C00063001A92846FBF7DBFD012003B030BDA6
:10552C000010014008B50830FBF794FC08BD0000E2
:10553C0008B5037943B131B962B100224FF48051FF
:10554C000848FBF7BBFE08BD074B084A3421084846
:10555C00FDF782F901224FF480510248FBF7AEFEB1
:10556C00F1E700BF0010014024A4000834A4000897
:10557C005CA40008012800D070474FF6FF739942D5
:10558C00FAD100B589B0174B1B68049304AB029396
:10559C00042303936B460421029883E80300124B07
:1055AC00124A1A6001460422A2B90E4B5B6807939B
:1055BC0007AB0593042306936B460421059883E8F7
:1055CC0003000B4B094A1A600146042232B909B098
:1055DC005DF804FB181D02F061F8E6E7181D02F0F7
:1055EC005DF8F4E7B8A50008AC020020708A00084A
:1055FC00A402002008B50B4B1B6813F0010F05D05B
:10560C004FF4E1310848FDF723FF08BD012106489E
:10561C00FDF7D2FE034B01221A60044802F006F893
:10562C00EEE700BFA0020020B402002009570008DA
:10563C0038B504460D4602F0D3F98DB1231813F991
:10564C00013C0A2B0CD00D232354431C0022E254A2
:10565C00FE2807DD084B094A36210948FDF7FCF8FE
:10566C00FF2803DC204602F04FF938BD054B034AF6
:10567C003B210348FDF7F0F8E8A4000804A5000856
:10568C002CA50008A0A500080FB410B582B004AA80
:10569C0052F8041B0192064C204602F0BFF901217E
:1056AC002046FFF7C5FF02B0BDE8104004B07047BC
:1056BC00C00200200FB410B582B004AA52F8041B2B
:1056CC000192064C204602F0A9F901212046FFF771
:1056DC00AFFF02B0BDE8104004B07047C00200201C
:1056EC0008B54FF6FF710120FFF744FF08BD08B560
:1056FC004FF6FF710020FFF73DFF08BD08B50248CB
:10570C00FDF712FE08BD00BFB4020020012800D036
:10571C0070474FF6FF739942FAD100B589B0174B19
:10572C001B68049304AB0293042303936B4604217C
:10573C00029883E80300124B124A1A6001460422B5
:10574C00A2B90E4B5B68079307AB05930423069332
:10575C006B460421059883E803000B4B094A1A6039
:10576C000146042232B909B05DF804FB181D01F0A2
:10577C0095FFE6E7181D01F091FFF4E784A60008F9
:10578C00C8030020708A0008C003002008B501215E
:10579C004FF08040FCF770FB00B908BD01214FF0C1
:1057AC008040FCF7D9FBFDF7DBFCF6E708B54020A1
:1057BC00FBF730FCC0B94FF40070FBF72BFC40B189
:1057CC000E4B1868A0B1FEF7FBFC4FF40070FBF712
:1057DC006DFC2020FBF76AFC8020FBF767FC4FF484
:1057EC008070FBF763FC08BD4020FBF75FFCE2E731
:1057FC00034B044A56210448FDF72EF824020020DE
:10580C007C920008C0A5000800A6000810B54FF453
:10581C0058710D48FCF7BEFE012807D040F2255107
:10582C000948FCF7B7FE012804D010BD074B1A88B5
:10583C009B88F3E7044C20212046FCF76BFE2046A6
:10584C00FCF7F0FDF1E700BF0044004000480040C9
:10585C0008B54FF6FF710120FFF758FF08BD08B5DA
:10586C004FF6FF710020FFF751FF08BD012800D053
:10587C0070474FF6FF739942FAD100B589B0174BB8
:10588C001B68049304AB0293042303936B4604211B
:10589C00029883E80300124B124A1A600146042254
:1058AC00A2B90E4B5B68079307AB059304230693D1
:1058BC006B460421059883E803000B4B094A1A60D8
:1058CC000146042232B909B05DF804FB181D01F041
:1058DC00E5FEE6E7181D01F0E1FEF4E78CA60008F2
:1058EC00D8030020708A0008D003002008B54FF6BA
:1058FC00FF710120FFF7BAFF08BD08B54FF6FF7125
:10590C000020FFF7B3FF08BD012800D070474FF609
:10591C00FF739942FAD100B589B0174B1B680493F9
:10592C0004AB0293042303936B460421029883E88F
:10593C000300124B124A1A6001460422A2B90E4B04
:10594C005B68079307AB0593042306936B4604210E
:10595C00059883E803000B4B094A1A6001460422A0
:10596C0032B909B05DF804FB181D01F097FEE6E7AB
:10597C00181D01F093FEF4E7DCAC0008E8030020EE
:10598C00708A0008E003002010B50446074B036042
:10599C0041600023C3600374427421B108460B6854
:1059AC00DB689847A060204610BD00BFECAC000837
:1059BC00C36803B170472DE9F04188B004460D4629
:1059CC0041680B689B6868469847009E61680B6845
:1059DC009B6802A89847039800FB06F007301DD47B
:1059EC00C01001F0DFFD0646E060A5B165682B68CC
:1059FC00DF6A9B68294604A89847DDF81080616827
:105A0C000B689B6806A89847079B03FB08F3324674
:105A1C0000212846B84708B0BDE8F0810730DFE721
:105A2C002DE9F0438DB00D68002D1DDB07460C46AB
:105A3C00164641680B689B6868469847009B9D42D8
:105A4C0012DA6568002D0FDB79680B689B6802A879
:105A5C009847039B9D4207DAFB68002B62D0B6F196
:105A6C00FF3F04D0012E32D00DB0BDE8F083656845
:105A7C0079680B689B6804A898472368049A02FB12
:105A8C0005335A4203F0070302F0070258BF534292
:105A9C004FF0010808FA03F36FEA0308D7F80C90EB
:105AAC00656879680B689B6806A898472368069A0E
:105ABC0002FB0533002B08DBDB10F96819F8032017
:105ACC0002EA080801F80380CCE70733F4E76568BD
